{
  "contractName": "food_pagonis",
  "abi": [
    {
      "constant": true,
      "inputs": [
        {
          "name": "",
          "type": "uint256"
        }
      ],
      "name": "products",
      "outputs": [
        {
          "name": "id",
          "type": "uint256"
        },
        {
          "name": "name",
          "type": "string"
        },
        {
          "name": "quantity",
          "type": "uint256"
        },
        {
          "name": "description",
          "type": "string"
        },
        {
          "name": "numberoftraces",
          "type": "uint256"
        },
        {
          "name": "numberoftemperatures",
          "type": "uint256"
        },
        {
          "name": "test_number",
          "type": "string"
        },
        {
          "name": "maker",
          "type": "address"
        },
        {
          "name": "globalId",
          "type": "string"
        },
        {
          "name": "hashIPFS",
          "type": "bytes32"
        }
      ],
      "payable": false,
      "stateMutability": "view",
      "type": "function"
    },
    {
      "constant": true,
      "inputs": [],
      "name": "adminaddr",
      "outputs": [
        {
          "name": "",
          "type": "address"
        }
      ],
      "payable": false,
      "stateMutability": "view",
      "type": "function"
    },
    {
      "constant": true,
      "inputs": [],
      "name": "stakeholder",
      "outputs": [
        {
          "name": "",
          "type": "address"
        }
      ],
      "payable": false,
      "stateMutability": "view",
      "type": "function"
    },
    {
      "inputs": [],
      "payable": false,
      "stateMutability": "nonpayable",
      "type": "constructor"
    },
    {
      "anonymous": false,
      "inputs": [],
      "name": "triggeredEvent",
      "type": "event"
    },
    {
      "anonymous": false,
      "inputs": [],
      "name": "updateEvent",
      "type": "event"
    },
    {
      "anonymous": false,
      "inputs": [
        {
          "indexed": true,
          "name": "_productId",
          "type": "uint256"
        }
      ],
      "name": "reqEvent",
      "type": "event"
    },
    {
      "constant": false,
      "inputs": [
        {
          "name": "_productId",
          "type": "uint256"
        },
        {
          "name": "_description",
          "type": "string"
        }
      ],
      "name": "UpdateProductDescription",
      "outputs": [],
      "payable": false,
      "stateMutability": "nonpayable",
      "type": "function"
    },
    {
      "constant": false,
      "inputs": [
        {
          "name": "_productId",
          "type": "uint256"
        },
        {
          "name": "_test_number",
          "type": "string"
        }
      ],
      "name": "addTestProduct",
      "outputs": [],
      "payable": false,
      "stateMutability": "nonpayable",
      "type": "function"
    },
    {
      "constant": true,
      "inputs": [],
      "name": "getNumberOfProducts",
      "outputs": [
        {
          "name": "",
          "type": "uint256"
        }
      ],
      "payable": false,
      "stateMutability": "view",
      "type": "function"
    },
    {
      "constant": false,
      "inputs": [
        {
          "name": "_productId",
          "type": "uint256"
        }
      ],
      "name": "getProduct",
      "outputs": [
        {
          "components": [
            {
              "name": "id",
              "type": "uint256"
            },
            {
              "name": "name",
              "type": "string"
            },
            {
              "name": "quantity",
              "type": "uint256"
            },
            {
              "name": "description",
              "type": "string"
            },
            {
              "name": "numberoftraces",
              "type": "uint256"
            },
            {
              "name": "numberoftemperatures",
              "type": "uint256"
            },
            {
              "name": "test_number",
              "type": "string"
            },
            {
              "name": "tracesProduct",
              "type": "uint256[]"
            },
            {
              "name": "temperaturesProduct",
              "type": "uint256[]"
            },
            {
              "name": "maker",
              "type": "address"
            },
            {
              "name": "globalId",
              "type": "string"
            },
            {
              "name": "hashIPFS",
              "type": "bytes32"
            }
          ],
          "name": "",
          "type": "tuple"
        }
      ],
      "payable": false,
      "stateMutability": "nonpayable",
      "type": "function"
    },
    {
      "constant": true,
      "inputs": [
        {
          "name": "_productId",
          "type": "uint256"
        }
      ],
      "name": "getProductGlobalID",
      "outputs": [
        {
          "name": "",
          "type": "string"
        }
      ],
      "payable": false,
      "stateMutability": "view",
      "type": "function"
    },
    {
      "constant": true,
      "inputs": [
        {
          "name": "_productId",
          "type": "uint256"
        }
      ],
      "name": "getProductTest",
      "outputs": [
        {
          "name": "",
          "type": "string"
        }
      ],
      "payable": false,
      "stateMutability": "view",
      "type": "function"
    },
    {
      "constant": true,
      "inputs": [
        {
          "name": "_productId",
          "type": "uint256"
        }
      ],
      "name": "getProductHistoric",
      "outputs": [
        {
          "name": "",
          "type": "bytes32"
        }
      ],
      "payable": false,
      "stateMutability": "view",
      "type": "function"
    },
    {
      "constant": false,
      "inputs": [
        {
          "name": "_productId",
          "type": "uint256"
        },
        {
          "name": "_location",
          "type": "string"
        },
        {
          "name": "_temp_owner",
          "type": "string"
        },
        {
          "name": "_timestamp",
          "type": "uint256"
        }
      ],
      "name": "addTrace",
      "outputs": [],
      "payable": false,
      "stateMutability": "nonpayable",
      "type": "function"
    },
    {
      "constant": false,
      "inputs": [
        {
          "name": "_productId",
          "type": "uint256"
        },
        {
          "name": "_celsius",
          "type": "uint256"
        },
        {
          "name": "_temp_owner",
          "type": "string"
        },
        {
          "name": "_timestamp",
          "type": "uint256"
        }
      ],
      "name": "addTemperature",
      "outputs": [],
      "payable": false,
      "stateMutability": "nonpayable",
      "type": "function"
    },
    {
      "constant": true,
      "inputs": [],
      "name": "getNumberOfTraces",
      "outputs": [
        {
          "name": "",
          "type": "uint256"
        }
      ],
      "payable": false,
      "stateMutability": "view",
      "type": "function"
    },
    {
      "constant": true,
      "inputs": [],
      "name": "getNumberOfTemperatures",
      "outputs": [
        {
          "name": "",
          "type": "uint256"
        }
      ],
      "payable": false,
      "stateMutability": "view",
      "type": "function"
    },
    {
      "constant": true,
      "inputs": [
        {
          "name": "_traceId",
          "type": "uint256"
        }
      ],
      "name": "getTrace",
      "outputs": [
        {
          "components": [
            {
              "name": "id",
              "type": "uint256"
            },
            {
              "name": "id_product",
              "type": "uint256"
            },
            {
              "name": "location",
              "type": "string"
            },
            {
              "name": "temp_owner",
              "type": "string"
            },
            {
              "name": "timestamp",
              "type": "uint256"
            },
            {
              "name": "maker",
              "type": "address"
            }
          ],
          "name": "",
          "type": "tuple"
        }
      ],
      "payable": false,
      "stateMutability": "view",
      "type": "function"
    },
    {
      "constant": true,
      "inputs": [
        {
          "name": "_temperatureId",
          "type": "uint256"
        }
      ],
      "name": "getTemperature",
      "outputs": [
        {
          "components": [
            {
              "name": "id",
              "type": "uint256"
            },
            {
              "name": "id_product",
              "type": "uint256"
            },
            {
              "name": "celsius",
              "type": "uint256"
            },
            {
              "name": "timestamp",
              "type": "uint256"
            },
            {
              "name": "maker",
              "type": "address"
            }
          ],
          "name": "",
          "type": "tuple"
        }
      ],
      "payable": false,
      "stateMutability": "view",
      "type": "function"
    },
    {
      "constant": true,
      "inputs": [
        {
          "name": "_productId",
          "type": "uint256"
        }
      ],
      "name": "getNumberOfTracesProduct",
      "outputs": [
        {
          "name": "",
          "type": "uint256"
        }
      ],
      "payable": false,
      "stateMutability": "view",
      "type": "function"
    },
    {
      "constant": true,
      "inputs": [
        {
          "name": "_productId",
          "type": "uint256"
        }
      ],
      "name": "getNumberOfTemperaturesProduct",
      "outputs": [
        {
          "name": "",
          "type": "uint256"
        }
      ],
      "payable": false,
      "stateMutability": "view",
      "type": "function"
    },
    {
      "constant": true,
      "inputs": [
        {
          "name": "_productId",
          "type": "uint256"
        }
      ],
      "name": "getTracesProduct",
      "outputs": [
        {
          "name": "",
          "type": "uint256[]"
        }
      ],
      "payable": false,
      "stateMutability": "view",
      "type": "function"
    },
    {
      "constant": true,
      "inputs": [
        {
          "name": "_productId",
          "type": "uint256"
        }
      ],
      "name": "getTemperaturesProduct",
      "outputs": [
        {
          "name": "",
          "type": "uint256[]"
        }
      ],
      "payable": false,
      "stateMutability": "view",
      "type": "function"
    },
    {
      "constant": true,
      "inputs": [
        {
          "name": "_productId",
          "type": "uint256"
        }
      ],
      "name": "retrieveHashProduct",
      "outputs": [
        {
          "name": "",
          "type": "bytes32"
        }
      ],
      "payable": false,
      "stateMutability": "view",
      "type": "function"
    },
    {
      "constant": false,
      "inputs": [],
      "name": "triggerContract",
      "outputs": [],
      "payable": false,
      "stateMutability": "nonpayable",
      "type": "function"
    },
    {
      "constant": false,
      "inputs": [
        {
          "name": "addr",
          "type": "address"
        }
      ],
      "name": "updateNumberOfProcesses",
      "outputs": [],
      "payable": false,
      "stateMutability": "nonpayable",
      "type": "function"
    },
    {
      "constant": false,
      "inputs": [
        {
          "name": "addr",
          "type": "address"
        }
      ],
      "name": "updateNumberOfStakeholders",
      "outputs": [],
      "payable": false,
      "stateMutability": "nonpayable",
      "type": "function"
    },
    {
      "constant": true,
      "inputs": [
        {
          "name": "addr",
          "type": "address"
        },
        {
          "name": "stake",
          "type": "address"
        }
      ],
      "name": "checkStakeholder",
      "outputs": [
        {
          "name": "",
          "type": "bool"
        }
      ],
      "payable": false,
      "stateMutability": "view",
      "type": "function"
    }
  ],
  "bytecode": "0x60806040523480156200001157600080fd5b50620000e76040518060400160405280600481526020017f4d696c6b0000000000000000000000000000000000000000000000000000000081525060c86040518060400160405280601e81526020017f436f77206d696c6b2c2066726f6d20636f7720494420433233343233354200008152506040518060400160405280600681526020017f30303031314100000000000000000000000000000000000000000000000000008152507f4144446546467474343530343535393478784533393438000000000000000000620001c160201b60201c565b6200016a60016040518060400160405280601081526020017f736f6d6520636f6f7264696e61746573000000000000000000000000000000008152506040518060400160405280601f81526020017f6e616d65206f722061646472657373206f662061637475616c206f776e657200815250635dcaaffd6200034a60201b60201c565b6000600860006101000a81548160ff0219169083151502179055506000600860016101000a81548160ff0219169083151502179055506000600860026101000a81548160ff02191690831515021790555062000647565b60036000815480929190600101919050555060035460008060035481526020019081526020016000206000018190555084600080600354815260200190815260200160002060010190805190602001906200021e92919062000511565b508360008060035481526020019081526020016000206002018190555082600080600354815260200190815260200160002060030190805190602001906200026892919062000511565b506000806000600354815260200190815260200160002060040181905550600080600060035481526020019081526020016000206005018190555033600080600354815260200190815260200160002060090160006101000a81548173ffffffffffffffffffffffffffffffffffffffff021916908373ffffffffffffffffffffffffffffffffffffffff160217905550816000806003548152602001908152602001600020600a0190805190602001906200032692919062000511565b50806000806003548152602001908152602001600020600b01819055505050505050565b6000841180156200035d57506003548411155b6200036757600080fd5b6004600081548092919060010191905055506040518060c0016040528060045481526020018581526020018481526020018381526020018281526020013373ffffffffffffffffffffffffffffffffffffffff16815250600160006004548152602001908152602001600020600082015181600001556020820151816001015560408201518160020190805190602001906200040592919062000598565b5060608201518160030190805190602001906200042492919062000598565b506080820151816004015560a08201518160050160006101000a81548173ffffffffffffffffffffffffffffffffffffffff021916908373ffffffffffffffffffffffffffffffffffffffff1602179055509050506000808581526020019081526020016000206007016004549080600181540180825580915050906001820390600052602060002001600090919290919091505550600080858152602001908152602001600020600401600081548092919060010191905055507f268e66ae95765f93db01351d19247262e2f8efaec3a7c2f7471fa7595dfe939460405160405180910390a150505050565b828054600181600116156101000203166002900490600052602060002090601f016020900481019282601f106200055457805160ff191683800117855562000585565b8280016001018555821562000585579182015b828111156200058457825182559160200191906001019062000567565b5b5090506200059491906200061f565b5090565b828054600181600116156101000203166002900490600052602060002090601f016020900481019282601f10620005db57805160ff19168380011785556200060c565b828001600101855582156200060c579182015b828111156200060b578251825591602001919060010190620005ee565b5b5090506200061b91906200061f565b5090565b6200064491905b808211156200064057600081600090555060010162000626565b5090565b90565b61289980620006576000396000f3fe608060405234801561001057600080fd5b50600436106101735760003560e01c80637acc0b20116100de578063b9db15b411610097578063d2b799ad11610071578063d2b799ad146104b1578063d6628f60146104bb578063f0331393146104eb578063ffb302851461050957610173565b8063b9db15b414610435578063c17cb40514610465578063cb3e4ec61461048157610173565b80637acc0b2014610330578063888fa979146103695780638d92706914610387578063956273e7146103b75780639e39f0c1146103e7578063ac3d84cd1461041757610173565b80632cf0993b116101305780632cf0993b1461024a5780633ffd81fb1461027a57806340a7ceaf14610298578063667350f7146102b45780636a92e477146102d0578063787889551461030057610173565b80630466f626146101785780630a79027e1461019657806310a7a0ea146101c657806316c8127c146101e257806324e27d7e146101fe57806326202e461461022e575b600080fd5b610180610539565b60405161018d9190612542565b60405180910390f35b6101b060048036036101ab9190810190611d19565b610543565b6040516101bd9190612542565b60405180910390f35b6101e060048036036101db9190810190611d6b565b61057c565b005b6101fc60048036036101f79190810190611d6b565b6105f1565b005b61021860048036036102139190810190611d19565b610666565b6040516102259190612505565b60405180910390f35b61024860048036036102439190810190611c8b565b61072c565b005b610264600480360361025f9190810190611d19565b6107b9565b6040516102719190612469565b60405180910390f35b610282610841565b60405161028f9190612542565b60405180910390f35b6102b260048036036102ad9190810190611dbf565b61084b565b005b6102ce60048036036102c99190810190611c8b565b610a0c565b005b6102ea60048036036102e59190810190611cb4565b610a99565b6040516102f7919061248b565b60405180910390f35b61031a60048036036103159190810190611d19565b610b37565b6040516103279190612542565b60405180910390f35b61034a60048036036103459190810190611d19565b610b70565b6040516103609a9998979695949392919061255d565b60405180910390f35b610371610e44565b60405161037e9190612542565b60405180910390f35b6103a1600480360361039c9190810190611d19565b610e4e565b6040516103ae9190612520565b60405180910390f35b6103d160048036036103cc9190810190611d19565b61104e565b6040516103de91906124a6565b60405180910390f35b61040160048036036103fc9190810190611d19565b611087565b60405161040e91906124c1565b60405180910390f35b61041f611159565b60405161042c919061244e565b60405180910390f35b61044f600480360361044a9190810190611d19565b611171565b60405161045c91906124e3565b60405180910390f35b61047f600480360361047a9190810190611e52565b611579565b005b61049b60048036036104969190810190611d19565b611704565b6040516104a891906124c1565b60405180910390f35b6104b96117d6565b005b6104d560048036036104d09190810190611d19565b61181f565b6040516104e291906124a6565b60405180910390f35b6104f3611913565b604051610500919061244e565b60405180910390f35b610523600480360361051e9190810190611d19565b61192b565b6040516105309190612469565b60405180910390f35b6000600554905090565b6000808211801561055657506003548211155b61055f57600080fd5b600080838152602001908152602001600020600401549050919050565b60008211801561058e57506003548211155b61059757600080fd5b8060008084815260200190815260200160002060030190805190602001906105c09291906119b3565b507f268e66ae95765f93db01351d19247262e2f8efaec3a7c2f7471fa7595dfe939460405160405180910390a15050565b60008211801561060357506003548211155b61060c57600080fd5b8060008084815260200190815260200160002060060190805190602001906106359291906119b3565b507f268e66ae95765f93db01351d19247262e2f8efaec3a7c2f7471fa7595dfe939460405160405180910390a15050565b61066e611a33565b60008211801561068057506005548211155b61068957600080fd5b600260008381526020019081526020016000206040518060a0016040529081600082015481526020016001820154815260200160028201548152602001600382015481526020016004820160009054906101000a900473ffffffffffffffffffffffffffffffffffffffff1673ffffffffffffffffffffffffffffffffffffffff1673ffffffffffffffffffffffffffffffffffffffff16815250509050919050565b60008190508073ffffffffffffffffffffffffffffffffffffffff166395bef5186040518163ffffffff1660e01b815260040160206040518083038186803b15801561077757600080fd5b505afa15801561078b573d6000803e3d6000fd5b505050506040513d601f19601f820116820180604052506107af9190810190611d42565b6007819055505050565b60606000821180156107cd57506003548211155b6107d657600080fd5b60008083815260200190815260200160002060070180548060200260200160405190810160405280929190818152602001828054801561083557602002820191906000526020600020905b815481526020019060010190808311610821575b50505050509050919050565b6000600354905090565b60008411801561085d57506003548411155b61086657600080fd5b6004600081548092919060010191905055506040518060c0016040528060045481526020018581526020018481526020018381526020018281526020013373ffffffffffffffffffffffffffffffffffffffff1681525060016000600454815260200190815260200160002060008201518160000155602082015181600101556040820151816002019080519060200190610902929190611a78565b50606082015181600301908051906020019061091f929190611a78565b506080820151816004015560a08201518160050160006101000a81548173ffffffffffffffffffffffffffffffffffffffff021916908373ffffffffffffffffffffffffffffffffffffffff1602179055509050506000808581526020019081526020016000206007016004549080600181540180825580915050906001820390600052602060002001600090919290919091505550600080858152602001908152602001600020600401600081548092919060010191905055507f268e66ae95765f93db01351d19247262e2f8efaec3a7c2f7471fa7595dfe939460405160405180910390a150505050565b60008190508073ffffffffffffffffffffffffffffffffffffffff1663b3d8f3b56040518163ffffffff1660e01b815260040160206040518083038186803b158015610a5757600080fd5b505afa158015610a6b573d6000803e3d6000fd5b505050506040513d601f19601f82011682018060405250610a8f9190810190611d42565b6006819055505050565b60008083905060008173ffffffffffffffffffffffffffffffffffffffff1663f6a3d24e856040518263ffffffff1660e01b8152600401610ada919061244e565b60206040518083038186803b158015610af257600080fd5b505afa158015610b06573d6000803e3d6000fd5b505050506040513d601f19601f82011682018060405250610b2a9190810190611cf0565b9050809250505092915050565b60008082118015610b4a57506003548211155b610b5357600080fd5b600080838152602001908152602001600020600501549050919050565b6000602052806000526040600020600091509050806000015490806001018054600181600116156101000203166002900480601f016020809104026020016040519081016040528092919081815260200182805460018160011615610100020316600290048015610c225780601f10610bf757610100808354040283529160200191610c22565b820191906000526020600020905b815481529060010190602001808311610c0557829003601f168201915b505050505090806002015490806003018054600181600116156101000203166002900480601f016020809104026020016040519081016040528092919081815260200182805460018160011615610100020316600290048015610cc65780601f10610c9b57610100808354040283529160200191610cc6565b820191906000526020600020905b815481529060010190602001808311610ca957829003601f168201915b505050505090806004015490806005015490806006018054600181600116156101000203166002900480601f016020809104026020016040519081016040528092919081815260200182805460018160011615610100020316600290048015610d705780601f10610d4557610100808354040283529160200191610d70565b820191906000526020600020905b815481529060010190602001808311610d5357829003601f168201915b5050505050908060090160009054906101000a900473ffffffffffffffffffffffffffffffffffffffff169080600a018054600181600116156101000203166002900480601f016020809104026020016040519081016040528092919081815260200182805460018160011615610100020316600290048015610e345780601f10610e0957610100808354040283529160200191610e34565b820191906000526020600020905b815481529060010190602001808311610e1757829003601f168201915b50505050509080600b015490508a565b6000600454905090565b610e56611af8565b600082118015610e6857506004548211155b610e7157600080fd5b600160008381526020019081526020016000206040518060c00160405290816000820154815260200160018201548152602001600282018054600181600116156101000203166002900480601f016020809104026020016040519081016040528092919081815260200182805460018160011615610100020316600290048015610f3c5780601f10610f1157610100808354040283529160200191610f3c565b820191906000526020600020905b815481529060010190602001808311610f1f57829003601f168201915b50505050508152602001600382018054600181600116156101000203166002900480601f016020809104026020016040519081016040528092919081815260200182805460018160011615610100020316600290048015610fde5780601f10610fb357610100808354040283529160200191610fde565b820191906000526020600020905b815481529060010190602001808311610fc157829003601f168201915b50505050508152602001600482015481526020016005820160009054906101000a900473ffffffffffffffffffffffffffffffffffffffff1673ffffffffffffffffffffffffffffffffffffffff1673ffffffffffffffffffffffffffffffffffffffff16815250509050919050565b6000808211801561106157506003548211155b61106a57600080fd5b600080838152602001908152602001600020600b01549050919050565b606060008211801561109b57506003548211155b6110a457600080fd5b6000808381526020019081526020016000206006018054600181600116156101000203166002900480601f01602080910402602001604051908101604052809291908181526020018280546001816001161561010002031660029004801561114d5780601f106111225761010080835404028352916020019161114d565b820191906000526020600020905b81548152906001019060200180831161113057829003601f168201915b50505050509050919050565b73e0f5206bbd039e7b0592d8918820024e2a74322281565b611179611b44565b60008211801561118b57506003548211155b61119457600080fd5b6000808381526020019081526020016000206040518061018001604052908160008201548152602001600182018054600181600116156101000203166002900480601f0160208091040260200160405190810160405280929190818152602001828054600181600116156101000203166002900480156112555780601f1061122a57610100808354040283529160200191611255565b820191906000526020600020905b81548152906001019060200180831161123857829003601f168201915b5050505050815260200160028201548152602001600382018054600181600116156101000203166002900480601f0160208091040260200160405190810160405280929190818152602001828054600181600116156101000203166002900480156113015780601f106112d657610100808354040283529160200191611301565b820191906000526020600020905b8154815290600101906020018083116112e457829003601f168201915b505050505081526020016004820154815260200160058201548152602001600682018054600181600116156101000203166002900480601f0160208091040260200160405190810160405280929190818152602001828054600181600116156101000203166002900480156113b75780601f1061138c576101008083540402835291602001916113b7565b820191906000526020600020905b81548152906001019060200180831161139a57829003601f168201915b505050505081526020016007820180548060200260200160405190810160405280929190818152602001828054801561140f57602002820191906000526020600020905b8154815260200190600101908083116113fb575b505050505081526020016008820180548060200260200160405190810160405280929190818152602001828054801561146757602002820191906000526020600020905b815481526020019060010190808311611453575b505050505081526020016009820160009054906101000a900473ffffffffffffffffffffffffffffffffffffffff1673ffffffffffffffffffffffffffffffffffffffff1673ffffffffffffffffffffffffffffffffffffffff168152602001600a82018054600181600116156101000203166002900480601f01602080910402602001604051908101604052809291908181526020018280546001816001161561010002031660029004801561155f5780601f106115345761010080835404028352916020019161155f565b820191906000526020600020905b81548152906001019060200180831161154257829003601f168201915b50505050508152602001600b820154815250509050919050565b60008411801561158b57506003548411155b61159457600080fd5b6005600081548092919060010191905055506040518060a0016040528060055481526020018581526020018481526020018281526020013373ffffffffffffffffffffffffffffffffffffffff168152506002600060055481526020019081526020016000206000820151816000015560208201518160010155604082015181600201556060820151816003015560808201518160040160006101000a81548173ffffffffffffffffffffffffffffffffffffffff021916908373ffffffffffffffffffffffffffffffffffffffff1602179055509050506000808581526020019081526020016000206008016005549080600181540180825580915050906001820390600052602060002001600090919290919091505550600080858152602001908152602001600020600501600081548092919060010191905055507f268e66ae95765f93db01351d19247262e2f8efaec3a7c2f7471fa7595dfe939460405160405180910390a150505050565b606060008211801561171857506003548211155b61172157600080fd5b600080838152602001908152602001600020600a018054600181600116156101000203166002900480601f0160208091040260200160405190810160405280929190818152602001828054600181600116156101000203166002900480156117ca5780601f1061179f576101008083540402835291602001916117ca565b820191906000526020600020905b8154815290600101906020018083116117ad57829003601f168201915b50505050509050919050565b6001600860006101000a81548160ff0219169083151502179055507fc593eaec92f167425b63e187f5049afb644916f3e7d3de263bcac1e207c6485c60405160405180910390a1565b60004360003660008086815260200190815260200160002060000154600080878152602001908152602001600020600101600080888152602001908152602001600020600201546000808981526020019081526020016000206003016000808a8152602001908152602001600020600401546000808b8152602001908152602001600020600501546000808c815260200190815260200160002060090160009054906101000a900473ffffffffffffffffffffffffffffffffffffffff166040516020016118f69a999897969594939291906123b5565b604051602081830303815290604052805190602001209050919050565b73e0f5206bbd039e7b0592d8918820024e2a7437b981565b606060008211801561193f57506003548211155b61194857600080fd5b6000808381526020019081526020016000206008018054806020026020016040519081016040528092919081815260200182805480156119a757602002820191906000526020600020905b815481526020019060010190808311611993575b50505050509050919050565b828054600181600116156101000203166002900490600052602060002090601f016020900481019282601f106119f457805160ff1916838001178555611a22565b82800160010185558215611a22579182015b82811115611a21578251825591602001919060010190611a06565b5b509050611a2f9190611bbe565b5090565b6040518060a0016040528060008152602001600081526020016000815260200160008152602001600073ffffffffffffffffffffffffffffffffffffffff1681525090565b828054600181600116156101000203166002900490600052602060002090601f016020900481019282601f10611ab957805160ff1916838001178555611ae7565b82800160010185558215611ae7579182015b82811115611ae6578251825591602001919060010190611acb565b5b509050611af49190611bbe565b5090565b6040518060c001604052806000815260200160008152602001606081526020016060815260200160008152602001600073ffffffffffffffffffffffffffffffffffffffff1681525090565b604051806101800160405280600081526020016060815260200160008152602001606081526020016000815260200160008152602001606081526020016060815260200160608152602001600073ffffffffffffffffffffffffffffffffffffffff16815260200160608152602001600080191681525090565b611be091905b80821115611bdc576000816000905550600101611bc4565b5090565b90565b600081359050611bf28161281a565b92915050565b600081519050611c0781612831565b92915050565b600082601f830112611c1e57600080fd5b8135611c31611c2c82612642565b612615565b91508082526020830160208301858383011115611c4d57600080fd5b611c5883828461278c565b50505092915050565b600081359050611c7081612848565b92915050565b600081519050611c8581612848565b92915050565b600060208284031215611c9d57600080fd5b6000611cab84828501611be3565b91505092915050565b60008060408385031215611cc757600080fd5b6000611cd585828601611be3565b9250506020611ce685828601611be3565b9150509250929050565b600060208284031215611d0257600080fd5b6000611d1084828501611bf8565b91505092915050565b600060208284031215611d2b57600080fd5b6000611d3984828501611c61565b91505092915050565b600060208284031215611d5457600080fd5b6000611d6284828501611c76565b91505092915050565b60008060408385031215611d7e57600080fd5b6000611d8c85828601611c61565b925050602083013567ffffffffffffffff811115611da957600080fd5b611db585828601611c0d565b9150509250929050565b60008060008060808587031215611dd557600080fd5b6000611de387828801611c61565b945050602085013567ffffffffffffffff811115611e0057600080fd5b611e0c87828801611c0d565b935050604085013567ffffffffffffffff811115611e2957600080fd5b611e3587828801611c0d565b9250506060611e4687828801611c61565b91505092959194509250565b60008060008060808587031215611e6857600080fd5b6000611e7687828801611c61565b9450506020611e8787828801611c61565b935050604085013567ffffffffffffffff811115611ea457600080fd5b611eb087828801611c0d565b9250506060611ec187828801611c61565b91505092959194509250565b6000611ed98383612380565b60208301905092915050565b611eee8161273a565b82525050565b611efd8161273a565b82525050565b611f14611f0f8261273a565b6127ce565b82525050565b6000611f25826126a5565b611f2f81856126f1565b9350611f3a8361267b565b8060005b83811015611f6b578151611f528882611ecd565b9750611f5d836126d3565b925050600181019050611f3e565b5085935050505092915050565b6000611f838261269a565b611f8d81856126e0565b9350611f988361266e565b8060005b83811015611fc9578151611fb08882611ecd565b9750611fbb836126c6565b925050600181019050611f9c565b5085935050505092915050565b611fdf8161274c565b82525050565b611fee81612758565b82525050565b611ffd81612758565b82525050565b600061200f8385612702565b935061201c83858461278c565b82840190509392505050565b6000612033826126bb565b61203d818561271e565b935061204d81856020860161279b565b612056816127fc565b840191505092915050565b600061206c826126b0565b612076818561270d565b935061208681856020860161279b565b61208f816127fc565b840191505092915050565b60006120a5826126b0565b6120af818561271e565b93506120bf81856020860161279b565b6120c8816127fc565b840191505092915050565b6000815460018116600081146120f0576001811461211557612159565b607f6002830416612101818761272f565b955060ff1983168652808601935050612159565b60028204612123818761272f565b955061212e85612688565b60005b8281101561215057815481890152600182019150602081019050612131565b82880195505050505b505092915050565b60006101808301600083015161217a6000860182612380565b50602083015184820360208601526121928282612061565b91505060408301516121a76040860182612380565b50606083015184820360608601526121bf8282612061565b91505060808301516121d46080860182612380565b5060a08301516121e760a0860182612380565b5060c083015184820360c08601526121ff8282612061565b91505060e083015184820360e08601526122198282611f78565b9150506101008301518482036101008601526122358282611f78565b91505061012083015161224c610120860182611ee5565b506101408301518482036101408601526122668282612061565b91505061016083015161227d610160860182611fe5565b508091505092915050565b60a08201600082015161229e6000850182612380565b5060208201516122b16020850182612380565b5060408201516122c46040850182612380565b5060608201516122d76060850182612380565b5060808201516122ea6080850182611ee5565b50505050565b600060c0830160008301516123086000860182612380565b50602083015161231b6020860182612380565b50604083015184820360408601526123338282612061565b9150506060830151848203606086015261234d8282612061565b91505060808301516123626080860182612380565b5060a083015161237560a0860182611ee5565b508091505092915050565b61238981612782565b82525050565b61239881612782565b82525050565b6123af6123aa82612782565b6127f2565b82525050565b60006123c1828d61239e565b6020820191506123d2828b8d612003565b91506123de828a61239e565b6020820191506123ee82896120d3565b91506123fa828861239e565b60208201915061240a82876120d3565b9150612416828661239e565b602082019150612426828561239e565b6020820191506124368284611f03565b6014820191508190509b9a5050505050505050505050565b60006020820190506124636000830184611ef4565b92915050565b600060208201905081810360008301526124838184611f1a565b905092915050565b60006020820190506124a06000830184611fd6565b92915050565b60006020820190506124bb6000830184611ff4565b92915050565b600060208201905081810360008301526124db8184612028565b905092915050565b600060208201905081810360008301526124fd8184612161565b905092915050565b600060a08201905061251a6000830184612288565b92915050565b6000602082019050818103600083015261253a81846122f0565b905092915050565b6000602082019050612557600083018461238f565b92915050565b600061014082019050612573600083018d61238f565b8181036020830152612585818c61209a565b9050612594604083018b61238f565b81810360608301526125a6818a61209a565b90506125b5608083018961238f565b6125c260a083018861238f565b81810360c08301526125d4818761209a565b90506125e360e0830186611ef4565b8181036101008301526125f6818561209a565b9050612606610120830184611ff4565b9b9a5050505050505050505050565b6000604051905081810181811067ffffffffffffffff8211171561263857600080fd5b8060405250919050565b600067ffffffffffffffff82111561265957600080fd5b601f19601f8301169050602081019050919050565b6000602082019050919050565b6000602082019050919050565b60008160005260206000209050919050565b600081519050919050565b600081519050919050565b600081519050919050565b600081519050919050565b6000602082019050919050565b6000602082019050919050565b600082825260208201905092915050565b600082825260208201905092915050565b600081905092915050565b600082825260208201905092915050565b600082825260208201905092915050565b600081905092915050565b600061274582612762565b9050919050565b60008115159050919050565b6000819050919050565b600073ffffffffffffffffffffffffffffffffffffffff82169050919050565b6000819050919050565b82818337600083830152505050565b60005b838110156127b957808201518184015260208101905061279e565b838111156127c8576000848401525b50505050565b60006127d9826127e0565b9050919050565b60006127eb8261280d565b9050919050565b6000819050919050565b6000601f19601f8301169050919050565b60008160601b9050919050565b6128238161273a565b811461282e57600080fd5b50565b61283a8161274c565b811461284557600080fd5b50565b61285181612782565b811461285c57600080fd5b5056fea265627a7a72305820de04eeb1f955f90f24cb84a02fc7cdb61957eee5e07b1d297995f668e84611126c6578706572696d656e74616cf50037",
  "source": "pragma solidity ^0.5.0;\npragma experimental ABIEncoderV2;\n\nimport \"./Processes.sol\";\nimport \"./Stakeholders.sol\";\n\n/* \nCOPYRIGHT FRAN CASINO. 2019.\nREQUIRE CLAUSES DEACTIVATED, TO BE DEFINED ACCORDING TO EACH SITUATION\nSC FOR FOOD SUPLY CHAIN - REAL CASE STUDY PAGONIS DIARY PRODCUTS\nSEVERAL STAKEHOLDERS AND PROCESSES ARE CONSIDERED, AND DEFINED IN PARALLELL SCS\n*/\n\ncontract food_pagonis{\n\n    \n    struct Product {\n        uint id;\n        string name;\n        uint quantity;\n        string description;  // for QOs or conditions, location, description\n        uint numberoftraces;\n        uint numberoftemperatures;\n\t    string test_number; // microbiological test\n        uint [] tracesProduct; // the ID of the traces of the product\n        uint [] temperaturesProduct;\n        address maker; // who  updates\n        string globalId; // global id in manufacturing \n        bytes32 hashIPFS; // refernce to manufacturing description, serial number, IMEI\n    }\n    // key is a uint, later corresponding to the product id\n    // what we store (the value) is a Product\n    // the information of this mapping is the set of products of the order.\n    mapping(uint => Product) public products; // public, so that w can access with a free function \n\n    struct Trace {\n        uint id;\n        uint id_product;\n        string location;\n        string temp_owner; // stakeholder\n        uint timestamp;\n        address maker; // who  updates\n    }\n\n    mapping(uint => Trace) private traces; // public, so that w can access with a free function \n    //store products count\n    // since mappings cant be looped and is difficult the have a count like array\n    // we need a var to store the coutings  \n    // useful also to iterate the mapping \n\n\n    struct Temperature {  // we use celsious\n        uint id;\n        uint id_product;\n        uint celsius; // the number\n        uint timestamp;\n        address maker; // who  updates\n    }\n\n    mapping(uint => Temperature) private temperatures; // public, so that w can access with a free function \n\n\n    //uint private temperaturesCount;\n    uint private productsCount;\n    uint private tracesCount;\n    uint private temperaturesCount;\n\n    // smart comm to smart comm statistics \n    uint private globalnumberstakeholders;\n    uint private globalnumberProcesses;\n\n    //PARTICIPANTS SHOULD BE FROM THE LIST OF STAKEHOLDERS\n    //address constant public stake5 = 0xE0F5206bbd039E7B0592D8918820024E2a743445;\n    //address constant public stake4 = 0x50e00dE2c5cC4e456Cf234FCb1A0eFA367ED016E;\n    //address constant public stake3 = 0x1533234Bd32f59909E1D471CF0C9BC80C92c97d2;\n    //address constant public stake2 = 0x395BE1C1Eb316f82781462C4C028893e51d8b2a5;\n    address constant public stakeholder = 0xE0f5206BBD039e7b0592d8918820024e2a7437b9; // example of stakeholder\n    address constant public adminaddr = 0xE0F5206bbd039e7b0592d8918820024E2A743222; // admin, current\n\n    bool private  triggered;\n    bool private  delivery;\n    bool private  received;\n\n\n    //Processes public p;\n    //Stakeholders public s;\n\n    // event, voted event. this will trigger when we want\n    //  when a vote is cast for example, in the vote function. \n    event triggeredEvent (  // triggers new accepted order \n    );\n\n    event updateEvent ( // triggers product status change\n    );\n\n    event reqEvent (\n        uint indexed _productId\n    );\n\n\n    constructor () public { // constructor, creates order. we map starting from id=1,  hardcoded values of all\n        addProduct(\"Milk\",200, \"Cow milk, from cow ID C234235B\",\"00011A\",\"ADDeFFtt45045594xxE3948\"); //\n        addTrace(1,\"some coordinates\", \"name or address of actual owner\",1573564413); // locations of the product. to be updated by corresponding stakheolder.\n        //addComponent();\n        triggered=false;\n        delivery=false;\n        received=false;\n    }\n\n\n    //PRODUCT OPERATIONS******************************************\n    // enables product creation\n    // get product\n    // get total for externally looping the mapping\n    // update others.\n\n    // add product to mapping. private because we dont want to be accesible or add products afterwards to our mapping. We only want\n    // our contract to be able to do that, from constructor\n    // otherwise the conditions of the accepted contract could change\n    function addProduct (string memory _name, uint _quantity, string memory _description, string memory _globalID, bytes32 _hashIpfs) private {\n        //require(msg.sender==stakholder);\n        //require(food_pagonis.checkStakeholder(address addr, address stake)==true); // if valid stakeholder\n\n        productsCount ++; // inc count at the begining. represents ID also. \n        products[productsCount].id = productsCount; \n        products[productsCount].name = _name;\n        products[productsCount].quantity = _quantity;\n        products[productsCount].description = _description;\n        products[productsCount].numberoftraces = 0;\n        products[productsCount].numberoftemperatures = 0; \n        products[productsCount].maker = msg.sender;\n        products[productsCount].globalId = _globalID;\n        products[productsCount].hashIPFS = _hashIpfs;\n        // reference the mapping with the key (that is the count). We assign the value to \n        // the mapping, the count will be the ID.  \n    }\n\n    \n\n     // only specific stakeholders, can be changed\n    function UpdateProductDescription (uint _productId, string memory _description) public { \n        //require(food_pagonis.checkStakeholder(address addr, address stake)==true); // if valid stakeholder\n        require(_productId > 0 && _productId <= productsCount); \n\n        products[_productId].description = _description;  // update conditions\n        emit updateEvent(); // trigger event \n    }\n\n    function addTestProduct (uint _productId, string memory _test_number) public { \n        require(_productId > 0 && _productId <= productsCount); \n\n        products[_productId].test_number = _test_number;  // update conditions\n        emit updateEvent(); // trigger event \n    }\n     \n\n    // returns the number of products, needed to iterate the mapping and to know info about the order.\n    function getNumberOfProducts () public view returns (uint){\n        return productsCount;\n    }\n    // function to check the contents of the contract, the customer will check it and later will trigger if correct\n    // only customer can check it \n    // customer will loop outside for this, getting the number of products before with getNumberOfProducts\n    function getProduct (uint _productId) public returns (Product memory) {\n        require(_productId > 0 && _productId <= productsCount); \n\n        return products[_productId];\n        emit reqEvent(_productId); // trigger event \n    }\n\n      function getProductGlobalID (uint _productId) public view returns (string memory) {\n        require(_productId > 0 && _productId <= productsCount); \n\n        return products[_productId].globalId;\n    }\n \n    function getProductTest (uint _productId) public view returns (string memory) {\n        require(_productId > 0 && _productId <= productsCount); \n\n        return products[_productId].test_number;\n    }\n\n\n      function getProductHistoric (uint _productId) public view returns (bytes32) {\n        require(_productId > 0 && _productId <= productsCount); \n\n        return products[_productId].hashIPFS;\n    }\n    //TRACES and temperatures OPERATIONS********************************************\n    // enables add trace to a product\n    // enables total number of traces to loop\n    // get a trace\n    // gets the total number of traces of a product. for statistical purposes\n    // get the list of traces of a product, that can be consulter afterwards using get a trace\n    // the same for temperatures\n\n    function addTrace (uint _productId, string memory _location, string memory _temp_owner, uint _timestamp) public {  // acts as update location\n        require(_productId > 0 && _productId <= productsCount); // check if product exists\n        \n        tracesCount ++; // inc count at the begining. represents ID also. \n        traces[tracesCount] = Trace(tracesCount, _productId, _location,_temp_owner,_timestamp,msg.sender);\n        products[_productId].tracesProduct.push(tracesCount); // we store the trace reference in the corresponding product\n        products[_productId].numberoftraces++;\n         //this will give us the set of ID traces about our productid\n        emit updateEvent();\n    }\n\n\n    function addTemperature (uint _productId, uint _celsius, string memory _temp_owner, uint _timestamp) public {  // acts as update location\n        require(_productId > 0 && _productId <= productsCount); // check if product exists\n        \n        temperaturesCount ++; // inc count at the begining. represents ID also. \n        temperatures[temperaturesCount] = Temperature(temperaturesCount, _productId, _celsius,_timestamp,msg.sender);\n        products[_productId].temperaturesProduct.push(temperaturesCount); // we store the trace reference in the corresponding product\n        products[_productId].numberoftemperatures++;\n        // this will give us the set of ID temperatures about our productid\n         //this will give us the set of ID traces about our productid\n        emit updateEvent();\n    }\n   \n    // returns the number of traced locations\n    //useful for generic statistical purposes\n    function getNumberOfTraces () public view returns (uint) {\n        \n        return tracesCount;\n    }\n\n    function getNumberOfTemperatures () public view returns (uint) {\n        return temperaturesCount;\n    }\n\n\n    // get a trace\n    function getTrace (uint _traceId) public view returns (Trace memory)  {\n        require(_traceId > 0 && _traceId <= tracesCount); \n\n        return traces[_traceId];\n    }\n\n    function getTemperature (uint _temperatureId) public view returns (Temperature memory)  {\n        require(_temperatureId > 0 && _temperatureId <= temperaturesCount); \n\n        return temperatures[_temperatureId];\n    }\n\n\n    // returns the number of traced locations for specific product\n    function getNumberOfTracesProduct (uint _productId) public view returns (uint) {\n        require(_productId > 0 && _productId <= productsCount); // check if product exists\n        \n        return products[_productId].numberoftraces;\n    }\n\n\t// returns the number of registered temperatures for specific product\n    function getNumberOfTemperaturesProduct (uint _productId) public view returns (uint) {\n        require(_productId > 0 && _productId <= productsCount); // check if product exists\n        \n        return products[_productId].numberoftemperatures;\n    }\n\n\n    // get the array of traces of a product, later we can loop them using getTrace to obtain the data\n    function getTracesProduct (uint _productId) public view returns (uint [] memory)  {\n        require(_productId > 0 && _productId <= productsCount); // check if product exists\n\n        return products[_productId].tracesProduct;\n    }\n\n    // get the array of temperatures of a product, later we can loop them using getTrace to obtain the data\n    function getTemperaturesProduct (uint _productId) public view returns (uint [] memory)  {\n        require(_productId > 0 && _productId <= productsCount); // check if product exists\n\n        return products[_productId].temperaturesProduct;\n    }\n\n\n    //EVENT AND SC OPERATIONS********************************************************\n    //  computes hash of transaction\n    // several event triggers\n\n\n    function retrieveHashProduct (uint _productId) public view returns (bytes32){ \n        //computehash according to unique characteristics\n        // hash has to identify a unique transaction so timestamp and locations and products should be used.\n        // this example hashes a transaction as a whole.\n        return keccak256(abi.encodePacked(block.number,msg.data, products[_productId].id, products[_productId].name, products[_productId].quantity, products[_productId].description, products[_productId].numberoftraces, products[_productId].numberoftemperatures, products[_productId].maker));\n\n    }\n\n\n     //this function triggers the contract\n    function triggerContract () public { \n        triggered=true;\n        emit triggeredEvent(); // trigger event \n\n    }\n\n        // returns global number of stories, needed to iterate the mapping and to know info.\n    // smart to smart comm\n    function updateNumberOfProcesses (address addr) public {\n        \n        Processes p = Processes(addr);\n        globalnumberProcesses=p.getNumberOfProcesses();    \n    }\n    \n    // returns global number of status, needed to iterate the mapping and to know info.\n    // smart to smart comm\n    function updateNumberOfStakeholders (address addr) public {\n        \n        Stakeholders s = Stakeholders(addr);\n        globalnumberstakeholders=s.getNumberOfStakeholders();\n        \n    }\n\n    function checkStakeholder (address addr, address stake) public view returns (bool){\n        Stakeholders s = Stakeholders(addr);\n        bool ex=s.exists(stake);\n        return ex;\n    }\n\n\n}\n",
  "sourcePath": "/home/fran/Desktop/food_supply_case_scenario/contracts/Food_pagonis.sol",
  "compiler": {
    "name": "solc",
    "version": "0.5.8+commit.23d335f2.Emscripten.clang"
  },
  "schemaVersion": "3.0.11",
  "updatedAt": "2020-02-28T15:24:48.117Z",
  "devdoc": {
    "methods": {}
  },
  "userdoc": {
    "methods": {}
  }
}