{
  "contractName": "Food_pagonis",
  "abi": [
    {
      "constant": true,
      "inputs": [
        {
          "name": "",
          "type": "uint256"
        }
      ],
      "name": "products",
      "outputs": [
        {
          "name": "id",
          "type": "uint256"
        },
        {
          "name": "name",
          "type": "string"
        },
        {
          "name": "quantity",
          "type": "uint256"
        },
        {
          "name": "description",
          "type": "string"
        },
        {
          "name": "numberoftraces",
          "type": "uint256"
        },
        {
          "name": "numberoftemperatures",
          "type": "uint256"
        },
        {
          "name": "test_number",
          "type": "string"
        },
        {
          "name": "maker",
          "type": "address"
        },
        {
          "name": "globalId",
          "type": "string"
        },
        {
          "name": "hashIPFS",
          "type": "string"
        }
      ],
      "payable": false,
      "stateMutability": "view",
      "type": "function"
    },
    {
      "constant": true,
      "inputs": [],
      "name": "globalnumberProcesses",
      "outputs": [
        {
          "name": "",
          "type": "uint256"
        }
      ],
      "payable": false,
      "stateMutability": "view",
      "type": "function"
    },
    {
      "constant": true,
      "inputs": [],
      "name": "tracesCount",
      "outputs": [
        {
          "name": "",
          "type": "uint256"
        }
      ],
      "payable": false,
      "stateMutability": "view",
      "type": "function"
    },
    {
      "constant": true,
      "inputs": [],
      "name": "adminaddr",
      "outputs": [
        {
          "name": "",
          "type": "address"
        }
      ],
      "payable": false,
      "stateMutability": "view",
      "type": "function"
    },
    {
      "constant": true,
      "inputs": [],
      "name": "globalnumberstakeholders",
      "outputs": [
        {
          "name": "",
          "type": "uint256"
        }
      ],
      "payable": false,
      "stateMutability": "view",
      "type": "function"
    },
    {
      "constant": true,
      "inputs": [],
      "name": "temperaturesCount",
      "outputs": [
        {
          "name": "",
          "type": "uint256"
        }
      ],
      "payable": false,
      "stateMutability": "view",
      "type": "function"
    },
    {
      "constant": true,
      "inputs": [],
      "name": "productsCount",
      "outputs": [
        {
          "name": "",
          "type": "uint256"
        }
      ],
      "payable": false,
      "stateMutability": "view",
      "type": "function"
    },
    {
      "constant": true,
      "inputs": [],
      "name": "stakeholder",
      "outputs": [
        {
          "name": "",
          "type": "address"
        }
      ],
      "payable": false,
      "stateMutability": "view",
      "type": "function"
    },
    {
      "inputs": [],
      "payable": false,
      "stateMutability": "nonpayable",
      "type": "constructor"
    },
    {
      "anonymous": false,
      "inputs": [],
      "name": "triggeredEvent",
      "type": "event"
    },
    {
      "anonymous": false,
      "inputs": [],
      "name": "updateEvent",
      "type": "event"
    },
    {
      "anonymous": false,
      "inputs": [
        {
          "indexed": true,
          "name": "_productId",
          "type": "uint256"
        }
      ],
      "name": "reqEvent",
      "type": "event"
    },
    {
      "constant": false,
      "inputs": [
        {
          "name": "_productId",
          "type": "uint256"
        },
        {
          "name": "_description",
          "type": "string"
        }
      ],
      "name": "UpdateProductDescription",
      "outputs": [],
      "payable": false,
      "stateMutability": "nonpayable",
      "type": "function"
    },
    {
      "constant": false,
      "inputs": [
        {
          "name": "_productId",
          "type": "uint256"
        },
        {
          "name": "_test_number",
          "type": "string"
        }
      ],
      "name": "addTestProduct",
      "outputs": [],
      "payable": false,
      "stateMutability": "nonpayable",
      "type": "function"
    },
    {
      "constant": true,
      "inputs": [],
      "name": "getNumberOfProducts",
      "outputs": [
        {
          "name": "",
          "type": "uint256"
        }
      ],
      "payable": false,
      "stateMutability": "view",
      "type": "function"
    },
    {
      "constant": false,
      "inputs": [
        {
          "name": "_productId",
          "type": "uint256"
        }
      ],
      "name": "getProduct",
      "outputs": [
        {
          "components": [
            {
              "name": "id",
              "type": "uint256"
            },
            {
              "name": "name",
              "type": "string"
            },
            {
              "name": "quantity",
              "type": "uint256"
            },
            {
              "name": "description",
              "type": "string"
            },
            {
              "name": "numberoftraces",
              "type": "uint256"
            },
            {
              "name": "numberoftemperatures",
              "type": "uint256"
            },
            {
              "name": "test_number",
              "type": "string"
            },
            {
              "name": "tracesProduct",
              "type": "uint256[]"
            },
            {
              "name": "temperaturesProduct",
              "type": "uint256[]"
            },
            {
              "name": "maker",
              "type": "address"
            },
            {
              "name": "globalId",
              "type": "string"
            },
            {
              "name": "hashIPFS",
              "type": "string"
            }
          ],
          "name": "",
          "type": "tuple"
        }
      ],
      "payable": false,
      "stateMutability": "nonpayable",
      "type": "function"
    },
    {
      "constant": true,
      "inputs": [
        {
          "name": "_productId",
          "type": "uint256"
        }
      ],
      "name": "getProductGlobalID",
      "outputs": [
        {
          "name": "",
          "type": "string"
        }
      ],
      "payable": false,
      "stateMutability": "view",
      "type": "function"
    },
    {
      "constant": true,
      "inputs": [
        {
          "name": "_productId",
          "type": "uint256"
        }
      ],
      "name": "getProductTest",
      "outputs": [
        {
          "name": "",
          "type": "string"
        }
      ],
      "payable": false,
      "stateMutability": "view",
      "type": "function"
    },
    {
      "constant": true,
      "inputs": [
        {
          "name": "_productId",
          "type": "uint256"
        }
      ],
      "name": "getProductHistoric",
      "outputs": [
        {
          "name": "",
          "type": "string"
        }
      ],
      "payable": false,
      "stateMutability": "view",
      "type": "function"
    },
    {
      "constant": false,
      "inputs": [
        {
          "name": "_productId",
          "type": "uint256"
        },
        {
          "name": "_location",
          "type": "string"
        },
        {
          "name": "_temp_owner",
          "type": "string"
        },
        {
          "name": "_timestamp",
          "type": "uint256"
        }
      ],
      "name": "addTrace",
      "outputs": [],
      "payable": false,
      "stateMutability": "nonpayable",
      "type": "function"
    },
    {
      "constant": false,
      "inputs": [
        {
          "name": "_productId",
          "type": "uint256"
        },
        {
          "name": "_celsius",
          "type": "uint256"
        },
        {
          "name": "_temp_owner",
          "type": "string"
        },
        {
          "name": "_timestamp",
          "type": "uint256"
        }
      ],
      "name": "addTemperature",
      "outputs": [],
      "payable": false,
      "stateMutability": "nonpayable",
      "type": "function"
    },
    {
      "constant": true,
      "inputs": [],
      "name": "getNumberOfTraces",
      "outputs": [
        {
          "name": "",
          "type": "uint256"
        }
      ],
      "payable": false,
      "stateMutability": "view",
      "type": "function"
    },
    {
      "constant": true,
      "inputs": [],
      "name": "getNumberOfTemperatures",
      "outputs": [
        {
          "name": "",
          "type": "uint256"
        }
      ],
      "payable": false,
      "stateMutability": "view",
      "type": "function"
    },
    {
      "constant": true,
      "inputs": [
        {
          "name": "_traceId",
          "type": "uint256"
        }
      ],
      "name": "getTrace",
      "outputs": [
        {
          "components": [
            {
              "name": "id",
              "type": "uint256"
            },
            {
              "name": "id_product",
              "type": "uint256"
            },
            {
              "name": "location",
              "type": "string"
            },
            {
              "name": "temp_owner",
              "type": "string"
            },
            {
              "name": "timestamp",
              "type": "uint256"
            },
            {
              "name": "maker",
              "type": "address"
            }
          ],
          "name": "",
          "type": "tuple"
        }
      ],
      "payable": false,
      "stateMutability": "view",
      "type": "function"
    },
    {
      "constant": true,
      "inputs": [
        {
          "name": "_temperatureId",
          "type": "uint256"
        }
      ],
      "name": "getTemperature",
      "outputs": [
        {
          "components": [
            {
              "name": "id",
              "type": "uint256"
            },
            {
              "name": "id_product",
              "type": "uint256"
            },
            {
              "name": "celsius",
              "type": "uint256"
            },
            {
              "name": "timestamp",
              "type": "uint256"
            },
            {
              "name": "maker",
              "type": "address"
            }
          ],
          "name": "",
          "type": "tuple"
        }
      ],
      "payable": false,
      "stateMutability": "view",
      "type": "function"
    },
    {
      "constant": true,
      "inputs": [
        {
          "name": "_productId",
          "type": "uint256"
        }
      ],
      "name": "getNumberOfTracesProduct",
      "outputs": [
        {
          "name": "",
          "type": "uint256"
        }
      ],
      "payable": false,
      "stateMutability": "view",
      "type": "function"
    },
    {
      "constant": true,
      "inputs": [
        {
          "name": "_productId",
          "type": "uint256"
        }
      ],
      "name": "getNumberOfTemperaturesProduct",
      "outputs": [
        {
          "name": "",
          "type": "uint256"
        }
      ],
      "payable": false,
      "stateMutability": "view",
      "type": "function"
    },
    {
      "constant": true,
      "inputs": [
        {
          "name": "_productId",
          "type": "uint256"
        }
      ],
      "name": "getTracesProduct",
      "outputs": [
        {
          "name": "",
          "type": "uint256[]"
        }
      ],
      "payable": false,
      "stateMutability": "view",
      "type": "function"
    },
    {
      "constant": true,
      "inputs": [
        {
          "name": "_productId",
          "type": "uint256"
        }
      ],
      "name": "getTemperaturesProduct",
      "outputs": [
        {
          "name": "",
          "type": "uint256[]"
        }
      ],
      "payable": false,
      "stateMutability": "view",
      "type": "function"
    },
    {
      "constant": true,
      "inputs": [
        {
          "name": "_productId",
          "type": "uint256"
        }
      ],
      "name": "retrieveHashProduct",
      "outputs": [
        {
          "name": "",
          "type": "bytes32"
        }
      ],
      "payable": false,
      "stateMutability": "view",
      "type": "function"
    },
    {
      "constant": false,
      "inputs": [],
      "name": "triggerContract",
      "outputs": [],
      "payable": false,
      "stateMutability": "nonpayable",
      "type": "function"
    },
    {
      "constant": false,
      "inputs": [
        {
          "name": "addr",
          "type": "address"
        }
      ],
      "name": "updateNumberOfProcesses",
      "outputs": [],
      "payable": false,
      "stateMutability": "nonpayable",
      "type": "function"
    },
    {
      "constant": false,
      "inputs": [
        {
          "name": "addr",
          "type": "address"
        }
      ],
      "name": "updateNumberOfStakeholders",
      "outputs": [],
      "payable": false,
      "stateMutability": "nonpayable",
      "type": "function"
    },
    {
      "constant": true,
      "inputs": [
        {
          "name": "addr",
          "type": "address"
        },
        {
          "name": "stake",
          "type": "address"
        }
      ],
      "name": "checkStakeholder",
      "outputs": [
        {
          "name": "",
          "type": "bool"
        }
      ],
      "payable": false,
      "stateMutability": "view",
      "type": "function"
    }
  ],
  "bytecode": "0x60806040523480156200001157600080fd5b50620000e06040518060400160405280600481526020017f4d696c6b0000000000000000000000000000000000000000000000000000000081525060c86040518060400160405280601e81526020017f436f77206d696c6b2c2066726f6d20636f7720494420433233343233354200008152506040518060400160405280600681526020017f30303031314100000000000000000000000000000000000000000000000000008152506040518060600160405280602e8152602001620035e1602e9139620005c060201b60201c565b620001ae6040518060400160405280600681526020017f596f67757274000000000000000000000000000000000000000000000000000081525060326040518060400160405280601d81526020017f436f77206d696c6b2c2066726f6d20636f7720494420443239393335470000008152506040518060400160405280600681526020017f30303533344100000000000000000000000000000000000000000000000000008152506040518060600160405280602e8152602001620035e1602e9139620005c060201b60201c565b6200027c6040518060400160405280601081526020017f4772617669657261206343686565736500000000000000000000000000000000815250600a6040518060400160405280601d81526020017f436f77206d696c6b2c2066726f6d20636f7720494420433232323235460000008152506040518060400160405280600681526020017f30303434324200000000000000000000000000000000000000000000000000008152506040518060600160405280602e8152602001620035e1602e9139620005c060201b60201c565b6200034a6040518060400160405280600f81526020017f4772617669657261206368656573650000000000000000000000000000000000815250600a6040518060400160405280601d81526020017f436f77206d696c6b2c2066726f6d20636f7720494420303030323335420000008152506040518060400160405280600681526020017f30303436334200000000000000000000000000000000000000000000000000008152506040518060600160405280602e8152602001620035e1602e9139620005c060201b60201c565b620004186040518060400160405280600b81526020017f466574612063686565736500000000000000000000000000000000000000000081525060966040518060400160405280601d81526020017f436f77206d696c6b2c2066726f6d20636f7720494420303030333336460000008152506040518060400160405280600681526020017f30303333334500000000000000000000000000000000000000000000000000008152506040518060600160405280602e8152602001620035e1602e9139620005c060201b60201c565b620004e66040518060400160405280600481526020017f4d696c6b0000000000000000000000000000000000000000000000000000000081525060c86040518060400160405280601d81526020017f436f77206d696c6b2c2066726f6d20636f7720494420303031323337460000008152506040518060400160405280600681526020017f30303132334100000000000000000000000000000000000000000000000000008152506040518060600160405280602e8152602001620035e1602e9139620005c060201b60201c565b6200056960016040518060400160405280601081526020017f736f6d6520636f6f7264696e61746573000000000000000000000000000000008152506040518060400160405280601f81526020017f6e616d65206f722061646472657373206f662061637475616c206f776e657200815250635dcaaffd6200075b60201b60201c565b6000600860006101000a81548160ff0219169083151502179055506000600860016101000a81548160ff0219169083151502179055506000600860026101000a81548160ff02191690831515021790555062000a58565b60036000815480929190600101919050555060035460008060035481526020019081526020016000206000018190555084600080600354815260200190815260200160002060010190805190602001906200061d92919062000922565b508360008060035481526020019081526020016000206002018190555082600080600354815260200190815260200160002060030190805190602001906200066792919062000922565b506000806000600354815260200190815260200160002060040181905550600080600060035481526020019081526020016000206005018190555033600080600354815260200190815260200160002060090160006101000a81548173ffffffffffffffffffffffffffffffffffffffff021916908373ffffffffffffffffffffffffffffffffffffffff160217905550816000806003548152602001908152602001600020600a0190805190602001906200072592919062000922565b50806000806003548152602001908152602001600020600b0190805190602001906200075392919062000922565b505050505050565b6000841180156200076e57506003548411155b6200077857600080fd5b6004600081548092919060010191905055506040518060c0016040528060045481526020018581526020018481526020018381526020018281526020013373ffffffffffffffffffffffffffffffffffffffff168152506001600060045481526020019081526020016000206000820151816000015560208201518160010155604082015181600201908051906020019062000816929190620009a9565b50606082015181600301908051906020019062000835929190620009a9565b506080820151816004015560a08201518160050160006101000a81548173ffffffffffffffffffffffffffffffffffffffff021916908373ffffffffffffffffffffffffffffffffffffffff1602179055509050506000808581526020019081526020016000206007016004549080600181540180825580915050906001820390600052602060002001600090919290919091505550600080858152602001908152602001600020600401600081548092919060010191905055507f268e66ae95765f93db01351d19247262e2f8efaec3a7c2f7471fa7595dfe939460405160405180910390a150505050565b828054600181600116156101000203166002900490600052602060002090601f016020900481019282601f106200096557805160ff191683800117855562000996565b8280016001018555821562000996579182015b828111156200099557825182559160200191906001019062000978565b5b509050620009a5919062000a30565b5090565b828054600181600116156101000203166002900490600052602060002090601f016020900481019282601f10620009ec57805160ff191683800117855562000a1d565b8280016001018555821562000a1d579182015b8281111562000a1c578251825591602001919060010190620009ff565b5b50905062000a2c919062000a30565b5090565b62000a5591905b8082111562000a5157600081600090555060010162000a37565b5090565b90565b612b798062000a686000396000f3fe608060405234801561001057600080fd5b50600436106101da5760003560e01c8063956273e711610104578063c17cb405116100a2578063d6628f6011610071578063d6628f601461059a578063e0df7bb6146105ca578063f0331393146105e8578063ffb3028514610606576101da565b8063c17cb40514610526578063cb3e4ec614610542578063d2b799ad14610572578063d4f3acbb1461057c576101da565b8063a990739a116100de578063a990739a1461049c578063ac3d84cd146104ba578063b724fe00146104d8578063b9db15b4146104f6576101da565b8063956273e71461041e5780639e39f0c11461044e578063a288e3e91461047e576101da565b80633ffd81fb1161017c578063787889551161014b57806378788955146103675780637acc0b2014610397578063888fa979146103d05780638d927069146103ee576101da565b80633ffd81fb146102e157806340a7ceaf146102ff578063667350f71461031b5780636a92e47714610337576101da565b806316c8127c116101b857806316c8127c1461024957806324e27d7e1461026557806326202e46146102955780632cf0993b146102b1576101da565b80630466f626146101df5780630a79027e146101fd57806310a7a0ea1461022d575b600080fd5b6101e7610636565b6040516101f4919061281b565b60405180910390f35b61021760048036036102129190810190611ffa565b610640565b604051610224919061281b565b60405180910390f35b6102476004803603610242919081019061204c565b610679565b005b610263600480360361025e919081019061204c565b6106ee565b005b61027f600480360361027a9190810190611ffa565b610763565b60405161028c91906127de565b60405180910390f35b6102af60048036036102aa9190810190611f6c565b610829565b005b6102cb60048036036102c69190810190611ffa565b6108b6565b6040516102d89190612742565b60405180910390f35b6102e961093e565b6040516102f6919061281b565b60405180910390f35b610319600480360361031491908101906120a0565b610948565b005b61033560048036036103309190810190611f6c565b610b09565b005b610351600480360361034c9190810190611f95565b610b96565b60405161035e9190612764565b60405180910390f35b610381600480360361037c9190810190611ffa565b610c34565b60405161038e919061281b565b60405180910390f35b6103b160048036036103ac9190810190611ffa565b610c6d565b6040516103c79a99989796959493929190612836565b60405180910390f35b6103d8610fd9565b6040516103e5919061281b565b60405180910390f35b61040860048036036104039190810190611ffa565b610fe3565b60405161041591906127f9565b60405180910390f35b61043860048036036104339190810190611ffa565b6111e3565b604051610445919061279a565b60405180910390f35b61046860048036036104639190810190611ffa565b6112b5565b604051610475919061279a565b60405180910390f35b610486611387565b604051610493919061281b565b60405180910390f35b6104a461138d565b6040516104b1919061281b565b60405180910390f35b6104c2611393565b6040516104cf9190612727565b60405180910390f35b6104e06113ab565b6040516104ed919061281b565b60405180910390f35b610510600480360361050b9190810190611ffa565b6113b1565b60405161051d91906127bc565b60405180910390f35b610540600480360361053b9190810190612133565b611851565b005b61055c60048036036105579190810190611ffa565b6119dc565b604051610569919061279a565b60405180910390f35b61057a611aae565b005b610584611af7565b604051610591919061281b565b60405180910390f35b6105b460048036036105af9190810190611ffa565b611afd565b6040516105c1919061277f565b60405180910390f35b6105d2611bf1565b6040516105df919061281b565b60405180910390f35b6105f0611bf7565b6040516105fd9190612727565b60405180910390f35b610620600480360361061b9190810190611ffa565b611c0f565b60405161062d9190612742565b60405180910390f35b6000600554905090565b6000808211801561065357506003548211155b61065c57600080fd5b600080838152602001908152602001600020600401549050919050565b60008211801561068b57506003548211155b61069457600080fd5b8060008084815260200190815260200160002060030190805190602001906106bd929190611c97565b507f268e66ae95765f93db01351d19247262e2f8efaec3a7c2f7471fa7595dfe939460405160405180910390a15050565b60008211801561070057506003548211155b61070957600080fd5b806000808481526020019081526020016000206006019080519060200190610732929190611c97565b507f268e66ae95765f93db01351d19247262e2f8efaec3a7c2f7471fa7595dfe939460405160405180910390a15050565b61076b611d17565b60008211801561077d57506005548211155b61078657600080fd5b600260008381526020019081526020016000206040518060a0016040529081600082015481526020016001820154815260200160028201548152602001600382015481526020016004820160009054906101000a900473ffffffffffffffffffffffffffffffffffffffff1673ffffffffffffffffffffffffffffffffffffffff1673ffffffffffffffffffffffffffffffffffffffff16815250509050919050565b60008190508073ffffffffffffffffffffffffffffffffffffffff166395bef5186040518163ffffffff1660e01b815260040160206040518083038186803b15801561087457600080fd5b505afa158015610888573d6000803e3d6000fd5b505050506040513d601f19601f820116820180604052506108ac9190810190612023565b6007819055505050565b60606000821180156108ca57506003548211155b6108d357600080fd5b60008083815260200190815260200160002060070180548060200260200160405190810160405280929190818152602001828054801561093257602002820191906000526020600020905b81548152602001906001019080831161091e575b50505050509050919050565b6000600354905090565b60008411801561095a57506003548411155b61096357600080fd5b6004600081548092919060010191905055506040518060c0016040528060045481526020018581526020018481526020018381526020018281526020013373ffffffffffffffffffffffffffffffffffffffff16815250600160006004548152602001908152602001600020600082015181600001556020820151816001015560408201518160020190805190602001906109ff929190611d5c565b506060820151816003019080519060200190610a1c929190611d5c565b506080820151816004015560a08201518160050160006101000a81548173ffffffffffffffffffffffffffffffffffffffff021916908373ffffffffffffffffffffffffffffffffffffffff1602179055509050506000808581526020019081526020016000206007016004549080600181540180825580915050906001820390600052602060002001600090919290919091505550600080858152602001908152602001600020600401600081548092919060010191905055507f268e66ae95765f93db01351d19247262e2f8efaec3a7c2f7471fa7595dfe939460405160405180910390a150505050565b60008190508073ffffffffffffffffffffffffffffffffffffffff1663b3d8f3b56040518163ffffffff1660e01b815260040160206040518083038186803b158015610b5457600080fd5b505afa158015610b68573d6000803e3d6000fd5b505050506040513d601f19601f82011682018060405250610b8c9190810190612023565b6006819055505050565b60008083905060008173ffffffffffffffffffffffffffffffffffffffff1663f6a3d24e856040518263ffffffff1660e01b8152600401610bd79190612727565b60206040518083038186803b158015610bef57600080fd5b505afa158015610c03573d6000803e3d6000fd5b505050506040513d601f19601f82011682018060405250610c279190810190611fd1565b9050809250505092915050565b60008082118015610c4757506003548211155b610c5057600080fd5b600080838152602001908152602001600020600501549050919050565b6000602052806000526040600020600091509050806000015490806001018054600181600116156101000203166002900480601f016020809104026020016040519081016040528092919081815260200182805460018160011615610100020316600290048015610d1f5780601f10610cf457610100808354040283529160200191610d1f565b820191906000526020600020905b815481529060010190602001808311610d0257829003601f168201915b505050505090806002015490806003018054600181600116156101000203166002900480601f016020809104026020016040519081016040528092919081815260200182805460018160011615610100020316600290048015610dc35780601f10610d9857610100808354040283529160200191610dc3565b820191906000526020600020905b815481529060010190602001808311610da657829003601f168201915b505050505090806004015490806005015490806006018054600181600116156101000203166002900480601f016020809104026020016040519081016040528092919081815260200182805460018160011615610100020316600290048015610e6d5780601f10610e4257610100808354040283529160200191610e6d565b820191906000526020600020905b815481529060010190602001808311610e5057829003601f168201915b5050505050908060090160009054906101000a900473ffffffffffffffffffffffffffffffffffffffff169080600a018054600181600116156101000203166002900480601f016020809104026020016040519081016040528092919081815260200182805460018160011615610100020316600290048015610f315780601f10610f0657610100808354040283529160200191610f31565b820191906000526020600020905b815481529060010190602001808311610f1457829003601f168201915b50505050509080600b018054600181600116156101000203166002900480601f016020809104026020016040519081016040528092919081815260200182805460018160011615610100020316600290048015610fcf5780601f10610fa457610100808354040283529160200191610fcf565b820191906000526020600020905b815481529060010190602001808311610fb257829003601f168201915b505050505090508a565b6000600454905090565b610feb611ddc565b600082118015610ffd57506004548211155b61100657600080fd5b600160008381526020019081526020016000206040518060c00160405290816000820154815260200160018201548152602001600282018054600181600116156101000203166002900480601f0160208091040260200160405190810160405280929190818152602001828054600181600116156101000203166002900480156110d15780601f106110a6576101008083540402835291602001916110d1565b820191906000526020600020905b8154815290600101906020018083116110b457829003601f168201915b50505050508152602001600382018054600181600116156101000203166002900480601f0160208091040260200160405190810160405280929190818152602001828054600181600116156101000203166002900480156111735780601f1061114857610100808354040283529160200191611173565b820191906000526020600020905b81548152906001019060200180831161115657829003601f168201915b50505050508152602001600482015481526020016005820160009054906101000a900473ffffffffffffffffffffffffffffffffffffffff1673ffffffffffffffffffffffffffffffffffffffff1673ffffffffffffffffffffffffffffffffffffffff16815250509050919050565b60606000821180156111f757506003548211155b61120057600080fd5b600080838152602001908152602001600020600b018054600181600116156101000203166002900480601f0160208091040260200160405190810160405280929190818152602001828054600181600116156101000203166002900480156112a95780601f1061127e576101008083540402835291602001916112a9565b820191906000526020600020905b81548152906001019060200180831161128c57829003601f168201915b50505050509050919050565b60606000821180156112c957506003548211155b6112d257600080fd5b6000808381526020019081526020016000206006018054600181600116156101000203166002900480601f01602080910402602001604051908101604052809291908181526020018280546001816001161561010002031660029004801561137b5780601f106113505761010080835404028352916020019161137b565b820191906000526020600020905b81548152906001019060200180831161135e57829003601f168201915b50505050509050919050565b60075481565b60045481565b73e0f5206bbd039e7b0592d8918820024e2a74322281565b60065481565b6113b9611e28565b6000821180156113cb57506003548211155b6113d457600080fd5b6000808381526020019081526020016000206040518061018001604052908160008201548152602001600182018054600181600116156101000203166002900480601f0160208091040260200160405190810160405280929190818152602001828054600181600116156101000203166002900480156114955780601f1061146a57610100808354040283529160200191611495565b820191906000526020600020905b81548152906001019060200180831161147857829003601f168201915b5050505050815260200160028201548152602001600382018054600181600116156101000203166002900480601f0160208091040260200160405190810160405280929190818152602001828054600181600116156101000203166002900480156115415780601f1061151657610100808354040283529160200191611541565b820191906000526020600020905b81548152906001019060200180831161152457829003601f168201915b505050505081526020016004820154815260200160058201548152602001600682018054600181600116156101000203166002900480601f0160208091040260200160405190810160405280929190818152602001828054600181600116156101000203166002900480156115f75780601f106115cc576101008083540402835291602001916115f7565b820191906000526020600020905b8154815290600101906020018083116115da57829003601f168201915b505050505081526020016007820180548060200260200160405190810160405280929190818152602001828054801561164f57602002820191906000526020600020905b81548152602001906001019080831161163b575b50505050508152602001600882018054806020026020016040519081016040528092919081815260200182805480156116a757602002820191906000526020600020905b815481526020019060010190808311611693575b505050505081526020016009820160009054906101000a900473ffffffffffffffffffffffffffffffffffffffff1673ffffffffffffffffffffffffffffffffffffffff1673ffffffffffffffffffffffffffffffffffffffff168152602001600a82018054600181600116156101000203166002900480601f01602080910402602001604051908101604052809291908181526020018280546001816001161561010002031660029004801561179f5780601f106117745761010080835404028352916020019161179f565b820191906000526020600020905b81548152906001019060200180831161178257829003601f168201915b50505050508152602001600b82018054600181600116156101000203166002900480601f0160208091040260200160405190810160405280929190818152602001828054600181600116156101000203166002900480156118415780601f1061181657610100808354040283529160200191611841565b820191906000526020600020905b81548152906001019060200180831161182457829003601f168201915b5050505050815250509050919050565b60008411801561186357506003548411155b61186c57600080fd5b6005600081548092919060010191905055506040518060a0016040528060055481526020018581526020018481526020018281526020013373ffffffffffffffffffffffffffffffffffffffff168152506002600060055481526020019081526020016000206000820151816000015560208201518160010155604082015181600201556060820151816003015560808201518160040160006101000a81548173ffffffffffffffffffffffffffffffffffffffff021916908373ffffffffffffffffffffffffffffffffffffffff1602179055509050506000808581526020019081526020016000206008016005549080600181540180825580915050906001820390600052602060002001600090919290919091505550600080858152602001908152602001600020600501600081548092919060010191905055507f268e66ae95765f93db01351d19247262e2f8efaec3a7c2f7471fa7595dfe939460405160405180910390a150505050565b60606000821180156119f057506003548211155b6119f957600080fd5b600080838152602001908152602001600020600a018054600181600116156101000203166002900480601f016020809104026020016040519081016040528092919081815260200182805460018160011615610100020316600290048015611aa25780601f10611a7757610100808354040283529160200191611aa2565b820191906000526020600020905b815481529060010190602001808311611a8557829003601f168201915b50505050509050919050565b6001600860006101000a81548160ff0219169083151502179055507fc593eaec92f167425b63e187f5049afb644916f3e7d3de263bcac1e207c6485c60405160405180910390a1565b60055481565b60004360003660008086815260200190815260200160002060000154600080878152602001908152602001600020600101600080888152602001908152602001600020600201546000808981526020019081526020016000206003016000808a8152602001908152602001600020600401546000808b8152602001908152602001600020600501546000808c815260200190815260200160002060090160009054906101000a900473ffffffffffffffffffffffffffffffffffffffff16604051602001611bd49a9998979695949392919061268e565b604051602081830303815290604052805190602001209050919050565b60035481565b73e0f5206bbd039e7b0592d8918820024e2a7437b981565b6060600082118015611c2357506003548211155b611c2c57600080fd5b600080838152602001908152602001600020600801805480602002602001604051908101604052809291908181526020018280548015611c8b57602002820191906000526020600020905b815481526020019060010190808311611c77575b50505050509050919050565b828054600181600116156101000203166002900490600052602060002090601f016020900481019282601f10611cd857805160ff1916838001178555611d06565b82800160010185558215611d06579182015b82811115611d05578251825591602001919060010190611cea565b5b509050611d139190611e9f565b5090565b6040518060a0016040528060008152602001600081526020016000815260200160008152602001600073ffffffffffffffffffffffffffffffffffffffff1681525090565b828054600181600116156101000203166002900490600052602060002090601f016020900481019282601f10611d9d57805160ff1916838001178555611dcb565b82800160010185558215611dcb579182015b82811115611dca578251825591602001919060010190611daf565b5b509050611dd89190611e9f565b5090565b6040518060c001604052806000815260200160008152602001606081526020016060815260200160008152602001600073ffffffffffffffffffffffffffffffffffffffff1681525090565b604051806101800160405280600081526020016060815260200160008152602001606081526020016000815260200160008152602001606081526020016060815260200160608152602001600073ffffffffffffffffffffffffffffffffffffffff16815260200160608152602001606081525090565b611ec191905b80821115611ebd576000816000905550600101611ea5565b5090565b90565b600081359050611ed381612afa565b92915050565b600081519050611ee881612b11565b92915050565b600082601f830112611eff57600080fd5b8135611f12611f0d82612922565b6128f5565b91508082526020830160208301858383011115611f2e57600080fd5b611f39838284612a6c565b50505092915050565b600081359050611f5181612b28565b92915050565b600081519050611f6681612b28565b92915050565b600060208284031215611f7e57600080fd5b6000611f8c84828501611ec4565b91505092915050565b60008060408385031215611fa857600080fd5b6000611fb685828601611ec4565b9250506020611fc785828601611ec4565b9150509250929050565b600060208284031215611fe357600080fd5b6000611ff184828501611ed9565b91505092915050565b60006020828403121561200c57600080fd5b600061201a84828501611f42565b91505092915050565b60006020828403121561203557600080fd5b600061204384828501611f57565b91505092915050565b6000806040838503121561205f57600080fd5b600061206d85828601611f42565b925050602083013567ffffffffffffffff81111561208a57600080fd5b61209685828601611eee565b9150509250929050565b600080600080608085870312156120b657600080fd5b60006120c487828801611f42565b945050602085013567ffffffffffffffff8111156120e157600080fd5b6120ed87828801611eee565b935050604085013567ffffffffffffffff81111561210a57600080fd5b61211687828801611eee565b925050606061212787828801611f42565b91505092959194509250565b6000806000806080858703121561214957600080fd5b600061215787828801611f42565b945050602061216887828801611f42565b935050604085013567ffffffffffffffff81111561218557600080fd5b61219187828801611eee565b92505060606121a287828801611f42565b91505092959194509250565b60006121ba8383612659565b60208301905092915050565b6121cf81612a1a565b82525050565b6121de81612a1a565b82525050565b6121f56121f082612a1a565b612aae565b82525050565b600061220682612985565b61221081856129d1565b935061221b8361295b565b8060005b8381101561224c57815161223388826121ae565b975061223e836129b3565b92505060018101905061221f565b5085935050505092915050565b60006122648261297a565b61226e81856129c0565b93506122798361294e565b8060005b838110156122aa57815161229188826121ae565b975061229c836129a6565b92505060018101905061227d565b5085935050505092915050565b6122c081612a2c565b82525050565b6122cf81612a38565b82525050565b60006122e183856129e2565b93506122ee838584612a6c565b82840190509392505050565b60006123058261299b565b61230f81856129fe565b935061231f818560208601612a7b565b61232881612adc565b840191505092915050565b600061233e82612990565b61234881856129ed565b9350612358818560208601612a7b565b61236181612adc565b840191505092915050565b600061237782612990565b61238181856129fe565b9350612391818560208601612a7b565b61239a81612adc565b840191505092915050565b6000815460018116600081146123c257600181146123e75761242b565b607f60028304166123d38187612a0f565b955060ff198316865280860193505061242b565b600282046123f58187612a0f565b955061240085612968565b60005b8281101561242257815481890152600182019150602081019050612403565b82880195505050505b505092915050565b60006101808301600083015161244c6000860182612659565b50602083015184820360208601526124648282612333565b91505060408301516124796040860182612659565b50606083015184820360608601526124918282612333565b91505060808301516124a66080860182612659565b5060a08301516124b960a0860182612659565b5060c083015184820360c08601526124d18282612333565b91505060e083015184820360e08601526124eb8282612259565b9150506101008301518482036101008601526125078282612259565b91505061012083015161251e6101208601826121c6565b506101408301518482036101408601526125388282612333565b9150506101608301518482036101608601526125548282612333565b9150508091505092915050565b60a0820160008201516125776000850182612659565b50602082015161258a6020850182612659565b50604082015161259d6040850182612659565b5060608201516125b06060850182612659565b5060808201516125c360808501826121c6565b50505050565b600060c0830160008301516125e16000860182612659565b5060208301516125f46020860182612659565b506040830151848203604086015261260c8282612333565b915050606083015184820360608601526126268282612333565b915050608083015161263b6080860182612659565b5060a083015161264e60a08601826121c6565b508091505092915050565b61266281612a62565b82525050565b61267181612a62565b82525050565b61268861268382612a62565b612ad2565b82525050565b600061269a828d612677565b6020820191506126ab828b8d6122d5565b91506126b7828a612677565b6020820191506126c782896123a5565b91506126d38288612677565b6020820191506126e382876123a5565b91506126ef8286612677565b6020820191506126ff8285612677565b60208201915061270f82846121e4565b6014820191508190509b9a5050505050505050505050565b600060208201905061273c60008301846121d5565b92915050565b6000602082019050818103600083015261275c81846121fb565b905092915050565b600060208201905061277960008301846122b7565b92915050565b600060208201905061279460008301846122c6565b92915050565b600060208201905081810360008301526127b481846122fa565b905092915050565b600060208201905081810360008301526127d68184612433565b905092915050565b600060a0820190506127f36000830184612561565b92915050565b6000602082019050818103600083015261281381846125c9565b905092915050565b60006020820190506128306000830184612668565b92915050565b60006101408201905061284c600083018d612668565b818103602083015261285e818c61236c565b905061286d604083018b612668565b818103606083015261287f818a61236c565b905061288e6080830189612668565b61289b60a0830188612668565b81810360c08301526128ad818761236c565b90506128bc60e08301866121d5565b8181036101008301526128cf818561236c565b90508181036101208301526128e4818461236c565b90509b9a5050505050505050505050565b6000604051905081810181811067ffffffffffffffff8211171561291857600080fd5b8060405250919050565b600067ffffffffffffffff82111561293957600080fd5b601f19601f8301169050602081019050919050565b6000602082019050919050565b6000602082019050919050565b60008160005260206000209050919050565b600081519050919050565b600081519050919050565b600081519050919050565b600081519050919050565b6000602082019050919050565b6000602082019050919050565b600082825260208201905092915050565b600082825260208201905092915050565b600081905092915050565b600082825260208201905092915050565b600082825260208201905092915050565b600081905092915050565b6000612a2582612a42565b9050919050565b60008115159050919050565b6000819050919050565b600073ffffffffffffffffffffffffffffffffffffffff82169050919050565b6000819050919050565b82818337600083830152505050565b60005b83811015612a99578082015181840152602081019050612a7e565b83811115612aa8576000848401525b50505050565b6000612ab982612ac0565b9050919050565b6000612acb82612aed565b9050919050565b6000819050919050565b6000601f19601f8301169050919050565b60008160601b9050919050565b612b0381612a1a565b8114612b0e57600080fd5b50565b612b1a81612a2c565b8114612b2557600080fd5b50565b612b3181612a62565b8114612b3c57600080fd5b5056fea265627a7a7230582083083be3b346ec9ab45cfcc8783df2e7f260cc0368a3b6a91112f752508c507c6c6578706572696d656e74616cf50037516d645576643374623454524d3470774d724c59456d676f374a447477786e77584231576661336774676e775731",
  "source": "pragma solidity ^0.5.0;\npragma experimental ABIEncoderV2;\n\nimport \"./Processes.sol\";\nimport \"./Stakeholders.sol\";\n\n/* \nCOPYRIGHT FRAN CASINO. 2019.\nREQUIRE CLAUSES DEACTIVATED, TO BE DEFINED ACCORDING TO EACH SITUATION\nSC FOR FOOD SUPLY CHAIN - REAL CASE STUDY PAGONIS DIARY PRODCUTS\nSEVERAL STAKEHOLDERS AND PROCESSES ARE CONSIDERED, AND DEFINED IN PARALLELL SCS\n*/\n\ncontract Food_pagonis{\n\n    \n    struct Product {\n        uint id;\n        string name;\n        uint quantity;\n        string description;  // for QOs or conditions, location, description\n        uint numberoftraces;\n        uint numberoftemperatures;\n\t    string test_number; // microbiological test\n        uint [] tracesProduct; // the ID of the traces of the product\n        uint [] temperaturesProduct;\n        address maker; // who  updates\n        string globalId; // global id in manufacturing \n        string hashIPFS; // refernce to manufacturing description, serial number, IMEI\n    }\n    // key is a uint, later corresponding to the product id\n    // what we store (the value) is a Product\n    // the information of this mapping is the set of products of the order.\n    mapping(uint => Product) public products; // public, so that w can access with a free function \n\n    struct Trace {\n        uint id;\n        uint id_product;\n        string location;\n        string temp_owner; // stakeholder\n        uint timestamp;\n        address maker; // who  updates\n    }\n\n    mapping(uint => Trace) private traces; // public, so that w can access with a free function \n    //store products count\n    // since mappings cant be looped and is difficult the have a count like array\n    // we need a var to store the coutings  \n    // useful also to iterate the mapping \n\n\n    struct Temperature {  // we use celsious\n        uint id;\n        uint id_product;\n        uint celsius; // the number\n        uint timestamp;\n        address maker; // who  updates\n    }\n\n    mapping(uint => Temperature) private temperatures; // public, so that w can access with a free function \n\n\n    //uint private temperaturesCount;\n    uint public productsCount;\n    uint public tracesCount;\n    uint public temperaturesCount;\n\n    // smart comm to smart comm statistics \n    uint public globalnumberstakeholders;\n    uint public globalnumberProcesses;\n\n    //PARTICIPANTS SHOULD BE FROM THE LIST OF STAKEHOLDERS\n    //address constant public stake5 = 0xE0F5206bbd039E7B0592D8918820024E2a743445;\n    //address constant public stake4 = 0x50e00dE2c5cC4e456Cf234FCb1A0eFA367ED016E;\n    //address constant public stake3 = 0x1533234Bd32f59909E1D471CF0C9BC80C92c97d2;\n    //address constant public stake2 = 0x395BE1C1Eb316f82781462C4C028893e51d8b2a5;\n    address constant public stakeholder = 0xE0f5206BBD039e7b0592d8918820024e2a7437b9; // example of stakeholder\n    address constant public adminaddr = 0xE0F5206bbd039e7b0592d8918820024E2A743222; // admin, current\n\n    bool private  triggered;\n    bool private  delivery;\n    bool private  received;\n\n\n    //Processes public p;\n    //Stakeholders public s;\n\n    // event, voted event. this will trigger when we want\n    //  when a vote is cast for example, in the vote function. \n    event triggeredEvent (  // triggers new accepted order \n    );\n\n    event updateEvent ( // triggers product status change\n    );\n\n    event reqEvent (\n        uint indexed _productId\n    );\n\n\n    constructor () public { // constructor, creates order. we map starting from id=1,  hardcoded values of all\n        addProduct(\"Milk\",200, \"Cow milk, from cow ID C234235B\",\"00011A\",\"QmdUvd3tb4TRM4pwMrLYEmgo7JDtwxnwXB1Wfa3gtgnwW1\"); //\n        addProduct(\"Yogurt\",50, \"Cow milk, from cow ID D29935G\",\"00534A\",\"QmdUvd3tb4TRM4pwMrLYEmgo7JDtwxnwXB1Wfa3gtgnwW1\");\n        addProduct(\"Graviera cCheese\",10, \"Cow milk, from cow ID C22225F\",\"00442B\",\"QmdUvd3tb4TRM4pwMrLYEmgo7JDtwxnwXB1Wfa3gtgnwW1\");\n        addProduct(\"Graviera cheese\",10, \"Cow milk, from cow ID 000235B\",\"00463B\",\"QmdUvd3tb4TRM4pwMrLYEmgo7JDtwxnwXB1Wfa3gtgnwW1\");\n        addProduct(\"Feta cheese\",150, \"Cow milk, from cow ID 000336F\",\"00333E\",\"QmdUvd3tb4TRM4pwMrLYEmgo7JDtwxnwXB1Wfa3gtgnwW1\");\n        addProduct(\"Milk\",200, \"Cow milk, from cow ID 001237F\",\"00123A\",\"QmdUvd3tb4TRM4pwMrLYEmgo7JDtwxnwXB1Wfa3gtgnwW1\");\n        addTrace(1,\"some coordinates\", \"name or address of actual owner\",1573564413); // locations of the product. to be updated by corresponding stakheolder.\n        //addComponent();\n        triggered=false;\n        delivery=false;\n        received=false;\n    }\n\n\n    //PRODUCT OPERATIONS******************************************\n    // enables product creation\n    // get product\n    // get total for externally looping the mapping\n    // update others.\n\n    // add product to mapping. private because we dont want to be accesible or add products afterwards to our mapping. We only want\n    // our contract to be able to do that, from constructor\n    // otherwise the conditions of the accepted contract could change\n    function addProduct (string memory _name, uint _quantity, string memory _description, string memory _globalID, string memory _hashIpfs) private {\n        //require(msg.sender==stakholder);\n        //require(food_pagonis.checkStakeholder(address addr, address stake)==true); // if valid stakeholder\n\n        productsCount ++; // inc count at the begining. represents ID also. \n        products[productsCount].id = productsCount; \n        products[productsCount].name = _name;\n        products[productsCount].quantity = _quantity;\n        products[productsCount].description = _description;\n        products[productsCount].numberoftraces = 0;\n        products[productsCount].numberoftemperatures = 0; \n        products[productsCount].maker = msg.sender;\n        products[productsCount].globalId = _globalID;\n        products[productsCount].hashIPFS = _hashIpfs;\n        // reference the mapping with the key (that is the count). We assign the value to \n        // the mapping, the count will be the ID.  \n    }\n\n    \n\n     // only specific stakeholders, can be changed\n    function UpdateProductDescription (uint _productId, string memory _description) public { \n        //require(food_pagonis.checkStakeholder(address addr, address stake)==true); // if valid stakeholder\n        require(_productId > 0 && _productId <= productsCount); \n\n        products[_productId].description = _description;  // update conditions\n        emit updateEvent(); // trigger event \n    }\n\n    function addTestProduct (uint _productId, string memory _test_number) public { \n        require(_productId > 0 && _productId <= productsCount); \n\n        products[_productId].test_number = _test_number;  // update conditions\n        emit updateEvent(); // trigger event \n    }\n     \n\n    // returns the number of products, needed to iterate the mapping and to know info about the order.\n    function getNumberOfProducts () public view returns (uint){\n        return productsCount;\n    }\n    // function to check the contents of the contract, the customer will check it and later will trigger if correct\n    // only customer can check it \n    // customer will loop outside for this, getting the number of products before with getNumberOfProducts\n    function getProduct (uint _productId) public returns (Product memory) {\n        require(_productId > 0 && _productId <= productsCount); \n\n        return products[_productId];\n        emit reqEvent(_productId); // trigger event \n    }\n\n      function getProductGlobalID (uint _productId) public view returns (string memory) {\n        require(_productId > 0 && _productId <= productsCount); \n\n        return products[_productId].globalId;\n    }\n \n    function getProductTest (uint _productId) public view returns (string memory) {\n        require(_productId > 0 && _productId <= productsCount); \n\n        return products[_productId].test_number;\n    }\n\n\n      function getProductHistoric (uint _productId) public view returns (string memory) {\n        require(_productId > 0 && _productId <= productsCount); \n\n        return products[_productId].hashIPFS;\n    }\n    //TRACES and temperatures OPERATIONS********************************************\n    // enables add trace to a product\n    // enables total number of traces to loop\n    // get a trace\n    // gets the total number of traces of a product. for statistical purposes\n    // get the list of traces of a product, that can be consulter afterwards using get a trace\n    // the same for temperatures\n\n    function addTrace (uint _productId, string memory _location, string memory _temp_owner, uint _timestamp) public {  // acts as update location\n        require(_productId > 0 && _productId <= productsCount); // check if product exists\n        \n        tracesCount ++; // inc count at the begining. represents ID also. \n        traces[tracesCount] = Trace(tracesCount, _productId, _location,_temp_owner,_timestamp,msg.sender);\n        products[_productId].tracesProduct.push(tracesCount); // we store the trace reference in the corresponding product\n        products[_productId].numberoftraces++;\n         //this will give us the set of ID traces about our productid\n        emit updateEvent();\n    }\n\n\n    function addTemperature (uint _productId, uint _celsius, string memory _temp_owner, uint _timestamp) public {  // acts as update location\n        require(_productId > 0 && _productId <= productsCount); // check if product exists\n        \n        temperaturesCount ++; // inc count at the begining. represents ID also. \n        temperatures[temperaturesCount] = Temperature(temperaturesCount, _productId, _celsius,_timestamp,msg.sender);\n        products[_productId].temperaturesProduct.push(temperaturesCount); // we store the trace reference in the corresponding product\n        products[_productId].numberoftemperatures++;\n        // this will give us the set of ID temperatures about our productid\n         //this will give us the set of ID traces about our productid\n        emit updateEvent();\n    }\n   \n    // returns the number of traced locations\n    //useful for generic statistical purposes\n    function getNumberOfTraces () public view returns (uint) {\n        \n        return tracesCount;\n    }\n\n    function getNumberOfTemperatures () public view returns (uint) {\n        return temperaturesCount;\n    }\n\n\n    // get a trace\n    function getTrace (uint _traceId) public view returns (Trace memory)  {\n        require(_traceId > 0 && _traceId <= tracesCount); \n\n        return traces[_traceId];\n    }\n\n    function getTemperature (uint _temperatureId) public view returns (Temperature memory)  {\n        require(_temperatureId > 0 && _temperatureId <= temperaturesCount); \n\n        return temperatures[_temperatureId];\n    }\n\n\n    // returns the number of traced locations for specific product\n    function getNumberOfTracesProduct (uint _productId) public view returns (uint) {\n        require(_productId > 0 && _productId <= productsCount); // check if product exists\n        \n        return products[_productId].numberoftraces;\n    }\n\n\t// returns the number of registered temperatures for specific product\n    function getNumberOfTemperaturesProduct (uint _productId) public view returns (uint) {\n        require(_productId > 0 && _productId <= productsCount); // check if product exists\n        \n        return products[_productId].numberoftemperatures;\n    }\n\n\n    // get the array of traces of a product, later we can loop them using getTrace to obtain the data\n    function getTracesProduct (uint _productId) public view returns (uint [] memory)  {\n        require(_productId > 0 && _productId <= productsCount); // check if product exists\n\n        return products[_productId].tracesProduct;\n    }\n\n    // get the array of temperatures of a product, later we can loop them using getTrace to obtain the data\n    function getTemperaturesProduct (uint _productId) public view returns (uint [] memory)  {\n        require(_productId > 0 && _productId <= productsCount); // check if product exists\n\n        return products[_productId].temperaturesProduct;\n    }\n\n\n    //EVENT AND SC OPERATIONS********************************************************\n    //  computes hash of transaction\n    // several event triggers\n\n\n    function retrieveHashProduct (uint _productId) public view returns (bytes32){ \n        //computehash according to unique characteristics\n        // hash has to identify a unique transaction so timestamp and locations and products should be used.\n        // this example hashes a transaction as a whole.\n        return keccak256(abi.encodePacked(block.number,msg.data, products[_productId].id, products[_productId].name, products[_productId].quantity, products[_productId].description, products[_productId].numberoftraces, products[_productId].numberoftemperatures, products[_productId].maker));\n        //return products[_productId].hash;\n\n    }\n\n\n     //this function triggers the contract\n    function triggerContract () public { \n        triggered=true;\n        emit triggeredEvent(); // trigger event \n\n    }\n\n        // returns global number of stories, needed to iterate the mapping and to know info.\n    // smart to smart comm\n    function updateNumberOfProcesses (address addr) public {\n        \n        Processes p = Processes(addr);\n        globalnumberProcesses=p.getNumberOfProcesses();    \n    }\n    \n    // returns global number of status, needed to iterate the mapping and to know info.\n    // smart to smart comm\n    function updateNumberOfStakeholders (address addr) public {\n        \n        Stakeholders s = Stakeholders(addr);\n        globalnumberstakeholders=s.getNumberOfStakeholders();\n        \n    }\n\n    function checkStakeholder (address addr, address stake) public view returns (bool){\n        Stakeholders s = Stakeholders(addr);\n        bool ex=s.exists(stake);\n        return ex;\n    }\n\n\n}\n",
  "sourcePath": "/home/fran/Desktop/food_supply_case_scenario/contracts/Food_pagonis.sol",
  "compiler": {
    "name": "solc",
    "version": "0.5.8+commit.23d335f2.Emscripten.clang"
  },
  "schemaVersion": "3.0.11",
  "updatedAt": "2020-04-08T13:50:56.732Z",
  "devdoc": {
    "methods": {}
  },
  "userdoc": {
    "methods": {}
  }
}