{
  "contractName": "Processes",
  "abi": [
    {
      "constant": true,
      "inputs": [],
      "name": "adminaddr",
      "outputs": [
        {
          "name": "",
          "type": "address"
        }
      ],
      "payable": false,
      "stateMutability": "view",
      "type": "function"
    },
    {
      "constant": true,
      "inputs": [],
      "name": "stakeholder",
      "outputs": [
        {
          "name": "",
          "type": "address"
        }
      ],
      "payable": false,
      "stateMutability": "view",
      "type": "function"
    },
    {
      "inputs": [],
      "payable": false,
      "stateMutability": "nonpayable",
      "type": "constructor"
    },
    {
      "anonymous": false,
      "inputs": [],
      "name": "updateEvent",
      "type": "event"
    },
    {
      "anonymous": false,
      "inputs": [],
      "name": "changeStatusEvent",
      "type": "event"
    },
    {
      "constant": false,
      "inputs": [
        {
          "name": "_name",
          "type": "string"
        },
        {
          "name": "_timestamp",
          "type": "uint256"
        },
        {
          "name": "_description",
          "type": "string"
        }
      ],
      "name": "addProcess",
      "outputs": [],
      "payable": false,
      "stateMutability": "nonpayable",
      "type": "function"
    },
    {
      "constant": false,
      "inputs": [
        {
          "name": "_id",
          "type": "uint256"
        }
      ],
      "name": "addProcessProduct",
      "outputs": [],
      "payable": false,
      "stateMutability": "nonpayable",
      "type": "function"
    },
    {
      "constant": false,
      "inputs": [
        {
          "name": "_id",
          "type": "uint256"
        },
        {
          "name": "_active",
          "type": "bool"
        }
      ],
      "name": "changeStatus",
      "outputs": [],
      "payable": false,
      "stateMutability": "nonpayable",
      "type": "function"
    },
    {
      "constant": true,
      "inputs": [
        {
          "name": "_id",
          "type": "uint256"
        }
      ],
      "name": "getProcessProduct",
      "outputs": [
        {
          "name": "",
          "type": "uint256[]"
        }
      ],
      "payable": false,
      "stateMutability": "view",
      "type": "function"
    },
    {
      "constant": true,
      "inputs": [
        {
          "name": "_id",
          "type": "uint256"
        }
      ],
      "name": "getNumberofProductsProcess",
      "outputs": [
        {
          "name": "",
          "type": "uint256"
        }
      ],
      "payable": false,
      "stateMutability": "view",
      "type": "function"
    },
    {
      "constant": true,
      "inputs": [
        {
          "name": "_processId",
          "type": "uint256"
        }
      ],
      "name": "getProcess",
      "outputs": [
        {
          "components": [
            {
              "name": "id",
              "type": "uint256"
            },
            {
              "name": "name",
              "type": "string"
            },
            {
              "name": "timestamp",
              "type": "uint256"
            },
            {
              "name": "description",
              "type": "string"
            },
            {
              "name": "active",
              "type": "bool"
            },
            {
              "name": "maker",
              "type": "address"
            },
            {
              "name": "hashIPFS",
              "type": "string"
            },
            {
              "name": "localnumberofproducts",
              "type": "uint256"
            },
            {
              "name": "involvedproducts",
              "type": "uint256[]"
            }
          ],
          "name": "",
          "type": "tuple"
        }
      ],
      "payable": false,
      "stateMutability": "view",
      "type": "function"
    },
    {
      "constant": true,
      "inputs": [],
      "name": "getNumberOfProcesses",
      "outputs": [
        {
          "name": "",
          "type": "uint256"
        }
      ],
      "payable": false,
      "stateMutability": "view",
      "type": "function"
    },
    {
      "constant": true,
      "inputs": [
        {
          "name": "addr",
          "type": "address"
        },
        {
          "name": "stake",
          "type": "address"
        }
      ],
      "name": "checkStakeholder",
      "outputs": [
        {
          "name": "",
          "type": "bool"
        }
      ],
      "payable": false,
      "stateMutability": "view",
      "type": "function"
    },
    {
      "constant": false,
      "inputs": [
        {
          "name": "addr",
          "type": "address"
        }
      ],
      "name": "updateNumberOfProducts",
      "outputs": [],
      "payable": false,
      "stateMutability": "nonpayable",
      "type": "function"
    }
  ],
  "bytecode": "0x60806040523480156200001157600080fd5b50620000936040518060400160405280600681526020017f4d6978696e670000000000000000000000000000000000000000000000000000815250635dcaaffd6040518060400160405280601881526020017f4d6978206d696c6b2077697468204c2e626163746572696100000000000000008152506200009960201b60201c565b620002c4565b6002600081548092919060010191905055506002546000806002548152602001908152602001600020600001819055508260008060025481526020019081526020016000206001019080519060200190620000f692919062000215565b508160008060025481526020019081526020016000206002018190555080600080600254815260200190815260200160002060030190805190602001906200014092919062000215565b506001600080600254815260200190815260200160002060040160006101000a81548160ff021916908315150217905550600080600060025481526020019081526020016000206006018190555033600080600254815260200190815260200160002060040160016101000a81548173ffffffffffffffffffffffffffffffffffffffff021916908373ffffffffffffffffffffffffffffffffffffffff1602179055507f268e66ae95765f93db01351d19247262e2f8efaec3a7c2f7471fa7595dfe939460405160405180910390a1505050565b828054600181600116156101000203166002900490600052602060002090601f016020900481019282601f106200025857805160ff191683800117855562000289565b8280016001018555821562000289579182015b82811115620002885782518255916020019190600101906200026b565b5b5090506200029891906200029c565b5090565b620002c191905b80821115620002bd576000816000905550600101620002a3565b5090565b90565b61120780620002d46000396000f3fe608060405234801561001057600080fd5b50600436106100a95760003560e01c8063ac3d84cd11610071578063ac3d84cd14610178578063ba3063c114610196578063d0851a71146101b2578063d8736d81146101e2578063f0331393146101fe578063fa2693b31461021c576100a9565b8063012bdd92146100ae578063067362d3146100de5780636a92e4771461010e57806394d300321461013e57806395bef5181461015a575b600080fd5b6100c860048036036100c39190810190610ca8565b610238565b6040516100d59190610f92565b60405180910390f35b6100f860048036036100f39190810190610ca8565b6102c0565b6040516101059190610ff1565b60405180910390f35b61012860048036036101239190810190610bc4565b6102f9565b6040516101359190610fb4565b60405180910390f35b61015860048036036101539190810190610ca8565b610397565b005b610162610407565b60405161016f9190610ff1565b60405180910390f35b610180610411565b60405161018d9190610f77565b60405180910390f35b6101b060048036036101ab9190810190610b9b565b610429565b005b6101cc60048036036101c79190810190610ca8565b6104b6565b6040516101d99190610fcf565b60405180910390f35b6101fc60048036036101f79190810190610c29565b6107cb565b005b610206610943565b6040516102139190610f77565b60405180910390f35b61023660048036036102319190810190610cfa565b61095b565b005b606060008211801561024c57506002548211155b61025557600080fd5b6000808381526020019081526020016000206007018054806020026020016040519081016040528092919081815260200182805480156102b457602002820191906000526020600020905b8154815260200190600101908083116102a0575b50505050509050919050565b600080821180156102d357506002548211155b6102dc57600080fd5b600080838152602001908152602001600020600601549050919050565b60008083905060008173ffffffffffffffffffffffffffffffffffffffff1663f6a3d24e856040518263ffffffff1660e01b815260040161033a9190610f77565b60206040518083038186803b15801561035257600080fd5b505afa158015610366573d6000803e3d6000fd5b505050506040513d601f19601f8201168201806040525061038a9190810190610c00565b9050809250505092915050565b60008060025481526020019081526020016000206007018190806001815401808255809150509060018203906000526020600020016000909192909190915055507f268e66ae95765f93db01351d19247262e2f8efaec3a7c2f7471fa7595dfe939460405160405180910390a150565b6000600254905090565b73e0f5206bbd039e7b0592d8918820024e2a74322281565b60008190508073ffffffffffffffffffffffffffffffffffffffff16633ffd81fb6040518163ffffffff1660e01b815260040160206040518083038186803b15801561047457600080fd5b505afa158015610488573d6000803e3d6000fd5b505050506040513d601f19601f820116820180604052506104ac9190810190610cd1565b6001819055505050565b6104be6109d5565b6000821180156104d057506002548211155b6104d957600080fd5b6000808381526020019081526020016000206040518061012001604052908160008201548152602001600182018054600181600116156101000203166002900480601f01602080910402602001604051908101604052809291908181526020018280546001816001161561010002031660029004801561059a5780601f1061056f5761010080835404028352916020019161059a565b820191906000526020600020905b81548152906001019060200180831161057d57829003601f168201915b5050505050815260200160028201548152602001600382018054600181600116156101000203166002900480601f0160208091040260200160405190810160405280929190818152602001828054600181600116156101000203166002900480156106465780601f1061061b57610100808354040283529160200191610646565b820191906000526020600020905b81548152906001019060200180831161062957829003601f168201915b505050505081526020016004820160009054906101000a900460ff161515151581526020016004820160019054906101000a900473ffffffffffffffffffffffffffffffffffffffff1673ffffffffffffffffffffffffffffffffffffffff1673ffffffffffffffffffffffffffffffffffffffff168152602001600582018054600181600116156101000203166002900480601f0160208091040260200160405190810160405280929190818152602001828054600181600116156101000203166002900480156107595780601f1061072e57610100808354040283529160200191610759565b820191906000526020600020905b81548152906001019060200180831161073c57829003601f168201915b5050505050815260200160068201548152602001600782018054806020026020016040519081016040528092919081815260200182805480156107bb57602002820191906000526020600020905b8154815260200190600101908083116107a7575b5050505050815250509050919050565b6002600081548092919060010191905055506002546000806002548152602001908152602001600020600001819055508260008060025481526020019081526020016000206001019080519060200190610826929190610a39565b5081600080600254815260200190815260200160002060020181905550806000806002548152602001908152602001600020600301908051906020019061086e929190610a39565b506001600080600254815260200190815260200160002060040160006101000a81548160ff021916908315150217905550600080600060025481526020019081526020016000206006018190555033600080600254815260200190815260200160002060040160016101000a81548173ffffffffffffffffffffffffffffffffffffffff021916908373ffffffffffffffffffffffffffffffffffffffff1602179055507f268e66ae95765f93db01351d19247262e2f8efaec3a7c2f7471fa7595dfe939460405160405180910390a1505050565b73e0f5206bbd039e7b0592d8918820024e2a7437b981565b60008211801561096d57506002548211155b61097657600080fd5b80600080600254815260200190815260200160002060040160006101000a81548160ff0219169083151502179055507fef4cdca646ad37e90f35a04ce008d6889f78491acac989a22794601ded0adee660405160405180910390a15050565b60405180610120016040528060008152602001606081526020016000815260200160608152602001600015158152602001600073ffffffffffffffffffffffffffffffffffffffff1681526020016060815260200160008152602001606081525090565b828054600181600116156101000203166002900490600052602060002090601f016020900481019282601f10610a7a57805160ff1916838001178555610aa8565b82800160010185558215610aa8579182015b82811115610aa7578251825591602001919060010190610a8c565b5b509050610ab59190610ab9565b5090565b610adb91905b80821115610ad7576000816000905550600101610abf565b5090565b90565b600081359050610aed81611188565b92915050565b600081359050610b028161119f565b92915050565b600081519050610b178161119f565b92915050565b600082601f830112610b2e57600080fd5b8135610b41610b3c82611039565b61100c565b91508082526020830160208301858383011115610b5d57600080fd5b610b68838284611135565b50505092915050565b600081359050610b80816111b6565b92915050565b600081519050610b95816111b6565b92915050565b600060208284031215610bad57600080fd5b6000610bbb84828501610ade565b91505092915050565b60008060408385031215610bd757600080fd5b6000610be585828601610ade565b9250506020610bf685828601610ade565b9150509250929050565b600060208284031215610c1257600080fd5b6000610c2084828501610b08565b91505092915050565b600080600060608486031215610c3e57600080fd5b600084013567ffffffffffffffff811115610c5857600080fd5b610c6486828701610b1d565b9350506020610c7586828701610b71565b925050604084013567ffffffffffffffff811115610c9257600080fd5b610c9e86828701610b1d565b9150509250925092565b600060208284031215610cba57600080fd5b6000610cc884828501610b71565b91505092915050565b600060208284031215610ce357600080fd5b6000610cf184828501610b86565b91505092915050565b60008060408385031215610d0d57600080fd5b6000610d1b85828601610b71565b9250506020610d2c85828601610af3565b9150509250929050565b6000610d428383610f59565b60208301905092915050565b610d57816110ed565b82525050565b610d66816110ed565b82525050565b6000610d778261108a565b610d8181856110cb565b9350610d8c83611072565b8060005b83811015610dbd578151610da48882610d36565b9750610daf836110ad565b925050600181019050610d90565b5085935050505092915050565b6000610dd58261107f565b610ddf81856110ba565b9350610dea83611065565b8060005b83811015610e1b578151610e028882610d36565b9750610e0d836110a0565b925050600181019050610dee565b5085935050505092915050565b610e31816110ff565b82525050565b610e40816110ff565b82525050565b6000610e5182611095565b610e5b81856110dc565b9350610e6b818560208601611144565b610e7481611177565b840191505092915050565b600061012083016000830151610e986000860182610f59565b5060208301518482036020860152610eb08282610e46565b9150506040830151610ec56040860182610f59565b5060608301518482036060860152610edd8282610e46565b9150506080830151610ef26080860182610e28565b5060a0830151610f0560a0860182610d4e565b5060c083015184820360c0860152610f1d8282610e46565b91505060e0830151610f3260e0860182610f59565b50610100830151848203610100860152610f4c8282610dca565b9150508091505092915050565b610f628161112b565b82525050565b610f718161112b565b82525050565b6000602082019050610f8c6000830184610d5d565b92915050565b60006020820190508181036000830152610fac8184610d6c565b905092915050565b6000602082019050610fc96000830184610e37565b92915050565b60006020820190508181036000830152610fe98184610e7f565b905092915050565b60006020820190506110066000830184610f68565b92915050565b6000604051905081810181811067ffffffffffffffff8211171561102f57600080fd5b8060405250919050565b600067ffffffffffffffff82111561105057600080fd5b601f19601f8301169050602081019050919050565b6000602082019050919050565b6000602082019050919050565b600081519050919050565b600081519050919050565b600081519050919050565b6000602082019050919050565b6000602082019050919050565b600082825260208201905092915050565b600082825260208201905092915050565b600082825260208201905092915050565b60006110f88261110b565b9050919050565b60008115159050919050565b600073ffffffffffffffffffffffffffffffffffffffff82169050919050565b6000819050919050565b82818337600083830152505050565b60005b83811015611162578082015181840152602081019050611147565b83811115611171576000848401525b50505050565b6000601f19601f8301169050919050565b611191816110ed565b811461119c57600080fd5b50565b6111a8816110ff565b81146111b357600080fd5b50565b6111bf8161112b565b81146111ca57600080fd5b5056fea265627a7a723058209526118a801eb92eae0dbba90e6523b0f12b324e2817f2826c0a14c7835bde686c6578706572696d656e74616cf50037",
  "source": "pragma solidity ^0.5.0;\npragma experimental ABIEncoderV2;\n\nimport \"./Stakeholders.sol\";\nimport \"./Food_pagonis.sol\";\n/*\nCOPYRIGHT FRAN CASINO. 2019.\nSECURITY CHECKS ARE COMMENTED FOR AN EASY USE TEST.\nYOU WILL NEED TO USE METAMASK OR OTHER EXTENSIONS TO USE THE REQUIRED ADDRESSES\nACTUALLY DATA ARE STORED IN THE SC. TO ENABLE IPFS, FUNCTIONS WILL NOT STORE the values and just the hash in the structs.\nThis can be changed in the code by calling the hash creation function. \nNevertheless, the code is kept clear for the sake of understanding. \n*/\n\n\ncontract Processes{\n\n    struct Process {\n        uint id; // \n\t    string name;       \n        uint timestamp; // when it was registered\n        string description; // other info\n\t    bool active;\n        address maker; // who registered it and will execute it,stakeholder\n        string hashIPFS; // hash of the elements of the struct, for auditing AND IPFS\n\t    uint localnumberofproducts; // number of products associated with this process \n\t    uint [] involvedproducts; // id of products that use this process\n    }\n\n    mapping(uint => Process) private processChanges; //\n\n    \n    uint private productsCount;\n    uint private processCount;\n\n\n    // events, since SC is for global accounts it does not have too much sense but is left here \n    event updateEvent ( // triggers update complete\n    );\n    \n    event changeStatusEvent ( // triggers status change\n    );\n\n    address constant public stakeholder = 0xE0f5206BBD039e7b0592d8918820024e2a7437b9; // who registers the token into system. \n    address constant public adminaddr = 0xE0F5206bbd039e7b0592d8918820024E2A743222; // admin, current\n\n    constructor () public { // constructor, inserts new process in system. we map starting from id=1, hardcoded values of all\n        addProcess(\"Mixing\",1573564413,\"Mix milk with L.bacteria\"); // simple example.\n        \n    }\n    \n    // add process \n    function addProcess (string memory _name, uint _timestamp, string memory _description) public {\n        //require(Processes.checkStakeholder(address addr, msg.sender)==true); // if valid stakeholder\n        processCount++;\n\n        processChanges[processCount].id = processCount;\n        processChanges[processCount].name = _name; \n        processChanges[processCount].timestamp = _timestamp; \n        processChanges[processCount].description = _description; \n        processChanges[processCount].active = true; \n        processChanges[processCount].localnumberofproducts=0;\n        processChanges[processCount].maker = msg.sender;\n        emit updateEvent(); // trigger event \n    \n    }\n\n    // we add a product to a process to keep track of it\n    function addProcessProduct(uint _id) public { // address of the food_pagonis contract\n\t    //require(msg.sender == adminaddr or msg.sender == processChanges[_id].myself); // only if admin or himself\n        //require(productsCount >= _id) // the product exists\n        processChanges[processCount].involvedproducts.push(_id);\n        emit updateEvent(); // trigger event \n    }\n\n    function changeStatus (uint _id, bool _active) public { \n        require(_id > 0 && _id <= processCount); \n        //require(Processes.checkStakeholder(address addr, msg.sender)==true); // if valid stakeholder\n        processChanges[processCount].active = _active;\n        emit changeStatusEvent(); // trigger event \n    }\n    \n    // get the products managed by the process\n    function getProcessProduct (uint _id) public view returns (uint [] memory)  {\n        require(_id > 0 && _id <= processCount);  // security check avoid memory leaks\n        //require(Processes.checkStakeholder(address addr, msg.sender)==true); // if valid stakeholder\n        return processChanges[_id].involvedproducts;\n    }\n\n     // get the products managed by the process\n    function getNumberofProductsProcess (uint _id) public view returns (uint)  {\n        require(_id > 0 && _id <= processCount);  // security check avoid memory leaks\n        //require(Processes.checkStakeholder(address addr, msg.sender)==true); // if valid stakeholder\n        return processChanges[_id].localnumberofproducts;\n    }\n\n    function getProcess (uint _processId) public view returns (Process memory)  {\n        require(_processId > 0 && _processId <= processCount); \n       //require(Processes.checkStakeholder(address addr, msg.sender)==true); // if valid stakeholder    \n        return processChanges[_processId];\n    }\n    \n    // returns global number of stories, needed to iterate the mapping and to know info.\n    function getNumberOfProcesses () public view returns (uint){\n    //tx.origin \n        return processCount;\n    }\n    \n    function checkStakeholder (address addr, address stake) public view returns (bool){\n        Stakeholders s = Stakeholders(addr);\n        bool ex=s.exists(stake);\n        return ex;\n    }\n\n    function updateNumberOfProducts (address addr) public {\n        Food_pagonis f = Food_pagonis(addr);\n        productsCount =f.getNumberOfProducts(); \n    }\n    \n}\n",
  "sourcePath": "/home/fran/Desktop/food_supply_case_scenario/contracts/Processes.sol",
  "compiler": {
    "name": "solc",
    "version": "0.5.8+commit.23d335f2.Emscripten.clang"
  },
  "schemaVersion": "3.0.11",
  "updatedAt": "2020-04-08T13:50:56.741Z",
  "devdoc": {
    "methods": {}
  },
  "userdoc": {
    "methods": {}
  }
}