{
  "contractName": "Stakeholders",
  "abi": [
    {
      "constant": true,
      "inputs": [],
      "name": "adminaddr",
      "outputs": [
        {
          "name": "",
          "type": "address"
        }
      ],
      "payable": false,
      "stateMutability": "view",
      "type": "function"
    },
    {
      "constant": true,
      "inputs": [],
      "name": "stakeholder",
      "outputs": [
        {
          "name": "",
          "type": "address"
        }
      ],
      "payable": false,
      "stateMutability": "view",
      "type": "function"
    },
    {
      "inputs": [],
      "payable": false,
      "stateMutability": "nonpayable",
      "type": "constructor"
    },
    {
      "anonymous": false,
      "inputs": [],
      "name": "updateEvent",
      "type": "event"
    },
    {
      "anonymous": false,
      "inputs": [],
      "name": "changeStatusEvent",
      "type": "event"
    },
    {
      "constant": false,
      "inputs": [
        {
          "name": "_name",
          "type": "string"
        },
        {
          "name": "_timestamp",
          "type": "uint256"
        },
        {
          "name": "_description",
          "type": "string"
        },
        {
          "name": "_stake",
          "type": "address"
        }
      ],
      "name": "addStakeholder",
      "outputs": [],
      "payable": false,
      "stateMutability": "nonpayable",
      "type": "function"
    },
    {
      "constant": false,
      "inputs": [
        {
          "name": "_id",
          "type": "uint256"
        },
        {
          "name": "_stake",
          "type": "address"
        }
      ],
      "name": "addStakeholderProduct",
      "outputs": [],
      "payable": false,
      "stateMutability": "nonpayable",
      "type": "function"
    },
    {
      "constant": false,
      "inputs": [
        {
          "name": "_active",
          "type": "bool"
        },
        {
          "name": "_stake",
          "type": "address"
        }
      ],
      "name": "changeStatus",
      "outputs": [],
      "payable": false,
      "stateMutability": "nonpayable",
      "type": "function"
    },
    {
      "constant": true,
      "inputs": [
        {
          "name": "_stake",
          "type": "address"
        }
      ],
      "name": "getStakeholdersProduct",
      "outputs": [
        {
          "name": "",
          "type": "uint256[]"
        }
      ],
      "payable": false,
      "stateMutability": "view",
      "type": "function"
    },
    {
      "constant": true,
      "inputs": [
        {
          "name": "_stake",
          "type": "address"
        }
      ],
      "name": "getStakeholder",
      "outputs": [
        {
          "components": [
            {
              "name": "id",
              "type": "uint256"
            },
            {
              "name": "name",
              "type": "string"
            },
            {
              "name": "timestamp",
              "type": "uint256"
            },
            {
              "name": "involvedproducts",
              "type": "uint256[]"
            },
            {
              "name": "description",
              "type": "string"
            },
            {
              "name": "myself",
              "type": "address"
            },
            {
              "name": "maker",
              "type": "address"
            },
            {
              "name": "active",
              "type": "bool"
            },
            {
              "name": "hashIPFS",
              "type": "string"
            }
          ],
          "name": "",
          "type": "tuple"
        }
      ],
      "payable": false,
      "stateMutability": "view",
      "type": "function"
    },
    {
      "constant": true,
      "inputs": [],
      "name": "getNumberOfStakeholders",
      "outputs": [
        {
          "name": "",
          "type": "uint256"
        }
      ],
      "payable": false,
      "stateMutability": "view",
      "type": "function"
    },
    {
      "constant": true,
      "inputs": [
        {
          "name": "_stake",
          "type": "address"
        }
      ],
      "name": "exists",
      "outputs": [
        {
          "name": "",
          "type": "bool"
        }
      ],
      "payable": false,
      "stateMutability": "view",
      "type": "function"
    },
    {
      "constant": false,
      "inputs": [
        {
          "name": "addr",
          "type": "address"
        }
      ],
      "name": "updateNumberOfProducts",
      "outputs": [],
      "payable": false,
      "stateMutability": "nonpayable",
      "type": "function"
    },
    {
      "constant": false,
      "inputs": [
        {
          "name": "addr",
          "type": "address"
        }
      ],
      "name": "updateNumberOfProcesses",
      "outputs": [],
      "payable": false,
      "stateMutability": "nonpayable",
      "type": "function"
    }
  ],
  "bytecode": "0x60806040523480156200001157600080fd5b50620000a86040518060400160405280600a81526020017f4d696c6b20436f72702e00000000000000000000000000000000000000000000815250635dcaaffd6040518060400160405280601381526020017f4c6f63616c206d696c6b2070726f76696465720000000000000000000000000081525073e0f5206bbd039e7b0592d8918820024e2a7437b9620000ae60201b60201c565b62000439565b6002600081548092919060010191905055506002546000808373ffffffffffffffffffffffffffffffffffffffff1673ffffffffffffffffffffffffffffffffffffffff16815260200190815260200160002060000181905550836000808373ffffffffffffffffffffffffffffffffffffffff1673ffffffffffffffffffffffffffffffffffffffff16815260200190815260200160002060010190805190602001906200015f9291906200038a565b50826000808373ffffffffffffffffffffffffffffffffffffffff1673ffffffffffffffffffffffffffffffffffffffff16815260200190815260200160002060020181905550816000808373ffffffffffffffffffffffffffffffffffffffff1673ffffffffffffffffffffffffffffffffffffffff1681526020019081526020016000206004019080519060200190620001fd9291906200038a565b50806000808373ffffffffffffffffffffffffffffffffffffffff1673ffffffffffffffffffffffffffffffffffffffff16815260200190815260200160002060050160006101000a81548173ffffffffffffffffffffffffffffffffffffffff021916908373ffffffffffffffffffffffffffffffffffffffff16021790555060016000808373ffffffffffffffffffffffffffffffffffffffff1673ffffffffffffffffffffffffffffffffffffffff16815260200190815260200160002060060160146101000a81548160ff021916908315150217905550336000808373ffffffffffffffffffffffffffffffffffffffff1673ffffffffffffffffffffffffffffffffffffffff16815260200190815260200160002060060160006101000a81548173ffffffffffffffffffffffffffffffffffffffff021916908373ffffffffffffffffffffffffffffffffffffffff1602179055507f268e66ae95765f93db01351d19247262e2f8efaec3a7c2f7471fa7595dfe939460405160405180910390a150505050565b828054600181600116156101000203166002900490600052602060002090601f016020900481019282601f10620003cd57805160ff1916838001178555620003fe565b82800160010185558215620003fe579182015b82811115620003fd578251825591602001919060010190620003e0565b5b5090506200040d919062000411565b5090565b6200043691905b808211156200043257600081600090555060010162000418565b5090565b90565b6113fd80620004496000396000f3fe608060405234801561001057600080fd5b50600436106100a95760003560e01c8063ac3d84cd11610071578063ac3d84cd1461014e578063b3d8f3b51461016c578063ba3063c11461018a578063c3e5be96146101a6578063f0331393146101d6578063f6a3d24e146101f4576100a9565b806320b6e4e5146100ae57806326202e46146100ca5780632d955cf9146100e6578063451ac6771461010257806362afde251461011e575b600080fd5b6100c860048036036100c39190810190610df8565b610224565b005b6100e460048036036100df9190810190610dcf565b6102c6565b005b61010060048036036100fb9190810190610ef0565b610353565b005b61011c60048036036101179190810190610e34565b6103ee565b005b61013860048036036101339190810190610dcf565b6106c6565b60405161014591906111c5565b60405180910390f35b610156610a38565b604051610163919061116d565b60405180910390f35b610174610a50565b60405161018191906111e7565b60405180910390f35b6101a4600480360361019f9190810190610dcf565b610a5a565b005b6101c060048036036101bb9190810190610dcf565b610ae7565b6040516101cd9190611188565b60405180910390f35b6101de610b80565b6040516101eb919061116d565b60405180910390f35b61020e60048036036102099190810190610dcf565b610b98565b60405161021b91906111aa565b60405180910390f35b6001151561023182610b98565b15151461023d57600080fd5b816000808373ffffffffffffffffffffffffffffffffffffffff1673ffffffffffffffffffffffffffffffffffffffff16815260200190815260200160002060060160146101000a81548160ff0219169083151502179055507fef4cdca646ad37e90f35a04ce008d6889f78491acac989a22794601ded0adee660405160405180910390a15050565b60008190508073ffffffffffffffffffffffffffffffffffffffff166395bef5186040518163ffffffff1660e01b815260040160206040518083038186803b15801561031157600080fd5b505afa158015610325573d6000803e3d6000fd5b505050506040513d601f19601f820116820180604052506103499190810190610ec7565b6003819055505050565b6000808273ffffffffffffffffffffffffffffffffffffffff1673ffffffffffffffffffffffffffffffffffffffff1681526020019081526020016000206003018290806001815401808255809150509060018203906000526020600020016000909192909190915055507f268e66ae95765f93db01351d19247262e2f8efaec3a7c2f7471fa7595dfe939460405160405180910390a15050565b6002600081548092919060010191905055506002546000808373ffffffffffffffffffffffffffffffffffffffff1673ffffffffffffffffffffffffffffffffffffffff16815260200190815260200160002060000181905550836000808373ffffffffffffffffffffffffffffffffffffffff1673ffffffffffffffffffffffffffffffffffffffff168152602001908152602001600020600101908051906020019061049d929190610c08565b50826000808373ffffffffffffffffffffffffffffffffffffffff1673ffffffffffffffffffffffffffffffffffffffff16815260200190815260200160002060020181905550816000808373ffffffffffffffffffffffffffffffffffffffff1673ffffffffffffffffffffffffffffffffffffffff1681526020019081526020016000206004019080519060200190610539929190610c08565b50806000808373ffffffffffffffffffffffffffffffffffffffff1673ffffffffffffffffffffffffffffffffffffffff16815260200190815260200160002060050160006101000a81548173ffffffffffffffffffffffffffffffffffffffff021916908373ffffffffffffffffffffffffffffffffffffffff16021790555060016000808373ffffffffffffffffffffffffffffffffffffffff1673ffffffffffffffffffffffffffffffffffffffff16815260200190815260200160002060060160146101000a81548160ff021916908315150217905550336000808373ffffffffffffffffffffffffffffffffffffffff1673ffffffffffffffffffffffffffffffffffffffff16815260200190815260200160002060060160006101000a81548173ffffffffffffffffffffffffffffffffffffffff021916908373ffffffffffffffffffffffffffffffffffffffff1602179055507f268e66ae95765f93db01351d19247262e2f8efaec3a7c2f7471fa7595dfe939460405160405180910390a150505050565b6106ce610c88565b6000808373ffffffffffffffffffffffffffffffffffffffff1673ffffffffffffffffffffffffffffffffffffffff1681526020019081526020016000206040518061012001604052908160008201548152602001600182018054600181600116156101000203166002900480601f0160208091040260200160405190810160405280929190818152602001828054600181600116156101000203166002900480156107bb5780601f10610790576101008083540402835291602001916107bb565b820191906000526020600020905b81548152906001019060200180831161079e57829003601f168201915b50505050508152602001600282015481526020016003820180548060200260200160405190810160405280929190818152602001828054801561081d57602002820191906000526020600020905b815481526020019060010190808311610809575b50505050508152602001600482018054600181600116156101000203166002900480601f0160208091040260200160405190810160405280929190818152602001828054600181600116156101000203166002900480156108bf5780601f10610894576101008083540402835291602001916108bf565b820191906000526020600020905b8154815290600101906020018083116108a257829003601f168201915b505050505081526020016005820160009054906101000a900473ffffffffffffffffffffffffffffffffffffffff1673ffffffffffffffffffffffffffffffffffffffff1673ffffffffffffffffffffffffffffffffffffffff1681526020016006820160009054906101000a900473ffffffffffffffffffffffffffffffffffffffff1673ffffffffffffffffffffffffffffffffffffffff1673ffffffffffffffffffffffffffffffffffffffff1681526020016006820160149054906101000a900460ff16151515158152602001600782018054600181600116156101000203166002900480601f016020809104026020016040519081016040528092919081815260200182805460018160011615610100020316600290048015610a285780601f106109fd57610100808354040283529160200191610a28565b820191906000526020600020905b815481529060010190602001808311610a0b57829003601f168201915b5050505050815250509050919050565b73e0f5206bbd039e7b0592d8918820024e2a74322281565b6000600254905090565b60008190508073ffffffffffffffffffffffffffffffffffffffff16633ffd81fb6040518163ffffffff1660e01b815260040160206040518083038186803b158015610aa557600080fd5b505afa158015610ab9573d6000803e3d6000fd5b505050506040513d601f19601f82011682018060405250610add9190810190610ec7565b6001819055505050565b60606000808373ffffffffffffffffffffffffffffffffffffffff1673ffffffffffffffffffffffffffffffffffffffff168152602001908152602001600020600301805480602002602001604051908101604052809291908181526020018280548015610b7457602002820191906000526020600020905b815481526020019060010190808311610b60575b50505050509050919050565b73e0f5206bbd039e7b0592d8918820024e2a7437b981565b6000600115156000808473ffffffffffffffffffffffffffffffffffffffff1673ffffffffffffffffffffffffffffffffffffffff16815260200190815260200160002060060160149054906101000a900460ff1615151415610bfe5760019050610c03565b600090505b919050565b828054600181600116156101000203166002900490600052602060002090601f016020900481019282601f10610c4957805160ff1916838001178555610c77565b82800160010185558215610c77579182015b82811115610c76578251825591602001919060010190610c5b565b5b509050610c849190610d02565b5090565b6040518061012001604052806000815260200160608152602001600081526020016060815260200160608152602001600073ffffffffffffffffffffffffffffffffffffffff168152602001600073ffffffffffffffffffffffffffffffffffffffff168152602001600015158152602001606081525090565b610d2491905b80821115610d20576000816000905550600101610d08565b5090565b90565b600081359050610d368161137e565b92915050565b600081359050610d4b81611395565b92915050565b600082601f830112610d6257600080fd5b8135610d75610d708261122f565b611202565b91508082526020830160208301858383011115610d9157600080fd5b610d9c83828461132b565b50505092915050565b600081359050610db4816113ac565b92915050565b600081519050610dc9816113ac565b92915050565b600060208284031215610de157600080fd5b6000610def84828501610d27565b91505092915050565b60008060408385031215610e0b57600080fd5b6000610e1985828601610d3c565b9250506020610e2a85828601610d27565b9150509250929050565b60008060008060808587031215610e4a57600080fd5b600085013567ffffffffffffffff811115610e6457600080fd5b610e7087828801610d51565b9450506020610e8187828801610da5565b935050604085013567ffffffffffffffff811115610e9e57600080fd5b610eaa87828801610d51565b9250506060610ebb87828801610d27565b91505092959194509250565b600060208284031215610ed957600080fd5b6000610ee784828501610dba565b91505092915050565b60008060408385031215610f0357600080fd5b6000610f1185828601610da5565b9250506020610f2285828601610d27565b9150509250929050565b6000610f38838361114f565b60208301905092915050565b610f4d816112e3565b82525050565b610f5c816112e3565b82525050565b6000610f6d82611280565b610f7781856112c1565b9350610f8283611268565b8060005b83811015610fb3578151610f9a8882610f2c565b9750610fa5836112a3565b925050600181019050610f86565b5085935050505092915050565b6000610fcb82611275565b610fd581856112b0565b9350610fe08361125b565b8060005b83811015611011578151610ff88882610f2c565b975061100383611296565b925050600181019050610fe4565b5085935050505092915050565b611027816112f5565b82525050565b611036816112f5565b82525050565b60006110478261128b565b61105181856112d2565b935061106181856020860161133a565b61106a8161136d565b840191505092915050565b60006101208301600083015161108e600086018261114f565b50602083015184820360208601526110a6828261103c565b91505060408301516110bb604086018261114f565b50606083015184820360608601526110d38282610fc0565b915050608083015184820360808601526110ed828261103c565b91505060a083015161110260a0860182610f44565b5060c083015161111560c0860182610f44565b5060e083015161112860e086018261101e565b50610100830151848203610100860152611142828261103c565b9150508091505092915050565b61115881611321565b82525050565b61116781611321565b82525050565b60006020820190506111826000830184610f53565b92915050565b600060208201905081810360008301526111a28184610f62565b905092915050565b60006020820190506111bf600083018461102d565b92915050565b600060208201905081810360008301526111df8184611075565b905092915050565b60006020820190506111fc600083018461115e565b92915050565b6000604051905081810181811067ffffffffffffffff8211171561122557600080fd5b8060405250919050565b600067ffffffffffffffff82111561124657600080fd5b601f19601f8301169050602081019050919050565b6000602082019050919050565b6000602082019050919050565b600081519050919050565b600081519050919050565b600081519050919050565b6000602082019050919050565b6000602082019050919050565b600082825260208201905092915050565b600082825260208201905092915050565b600082825260208201905092915050565b60006112ee82611301565b9050919050565b60008115159050919050565b600073ffffffffffffffffffffffffffffffffffffffff82169050919050565b6000819050919050565b82818337600083830152505050565b60005b8381101561135857808201518184015260208101905061133d565b83811115611367576000848401525b50505050565b6000601f19601f8301169050919050565b611387816112e3565b811461139257600080fd5b50565b61139e816112f5565b81146113a957600080fd5b50565b6113b581611321565b81146113c057600080fd5b5056fea265627a7a723058206750230183a4aba2d4994dfb9e0d2de48db59c88af8180ef3944db04f4f595956c6578706572696d656e74616cf50037",
  "source": "pragma solidity ^0.5.0;\npragma experimental ABIEncoderV2;\n\n\nimport \"./Processes.sol\";\nimport \"./Food_pagonis.sol\";\n/*\nCOPYRIGHT FRAN CASINO. 2019.\nSECURITY CHECKS ARE COMMENTED FOR AN EASY USE TEST.\nYOU WILL NEED TO USE METAMASK OR OTHER EXTENSIONS TO USE THE REQUIRED ADDRESSES\nACTUALLY DATA ARE STORED IN THE SC. TO ENABLE IPFS, FUNCTIONS WILL NOT STORE the values and just the hash in the structs.\nThis can be changed in the code by calling the hash creation function. \nNevertheless, the code is kept clear for the sake of understanding. \n\n*/\n\ncontract Stakeholders{\n \n    struct Stakeholder{\n        uint id; // id\n        string name; // the name of stakeholder\n        uint timestamp; // when it was registered\n        uint [] involvedproducts; // products used or related to stakeholder\n        string description; // other info\n\t    address myself; // the address of this stakeholder\n        address maker; // who registered this stakeholder, admin system\n        bool active; // to enable or disable this stakeholder\n        string hashIPFS; // hash of the elements of the struct, for auditing AND IPFS \n    }\n\n    //mapping(uint => Stakeholder) private stakeholderChanges; //\n\n    mapping(address => Stakeholder) private stakeholderAddrs; //\n\n    uint private productsCount;\n    uint private stakeholderCount;\n    uint private processesCount;\n\n    // events, since SC is for global accounts it does not have too much sense but is left here \n    event updateEvent ( // triggers update complete\n    );\n    \n    event changeStatusEvent ( // triggers status change\n    );\n\n    address constant public stakeholder = 0xE0f5206BBD039e7b0592d8918820024e2a7437b9; // example of stakeholder\n    address constant public adminaddr = 0xE0F5206bbd039e7b0592d8918820024E2A743222; // admin, current\n\n    constructor () public { // constructor, we map starting from id=1, hardcoded values of all\n        addStakeholder(\"Milk Corp.\",1573564413,\"Local milk provider\", 0xE0f5206BBD039e7b0592d8918820024e2a7437b9); //\n        \n    }\n    \n    // add stakeholder to the list. checkers security disabled\n    function addStakeholder (string memory _name, uint _timestamp, string memory _description, address _stake) public {\n\t//require(msg.sender == adminaddr); // only if admin\n        stakeholderCount++;\n        /*stakeholderChanges[stakeholderCount].id = stakeholderCount;\n        stakeholderChanges[stakeholderCount].name = _name; \n        stakeholderChanges[stakeholderCount].timestamp = _timestamp; \n        stakeholderChanges[stakeholderCount].description = _description;\n\t    stakeholderChanges[stakeholderCount].myself = _myself; \n        stakeholderChanges[stakeholderCount].active = true; \n        stakeholderChanges[stakeholderCount].maker = msg.sender;\n        */\n\n        stakeholderAddrs[_stake].id = stakeholderCount;\n        stakeholderAddrs[_stake].name = _name; \n        stakeholderAddrs[_stake].timestamp = _timestamp; \n        stakeholderAddrs[_stake].description = _description;\n        stakeholderAddrs[_stake].myself = _stake; \n        stakeholderAddrs[_stake].active = true; \n        stakeholderAddrs[_stake].maker = msg.sender; // admin ?\n        emit updateEvent(); // trigger event \n    }\n\n    function addStakeholderProduct(uint _id, address _stake) public { // address of the food_pagonis contract\n     \t//require(exists(msg.sender)==true or msg.sender == adminaddr); // if valid user\n        //require(productsCount >= _id) // the product exists\n        stakeholderAddrs[_stake].involvedproducts.push(_id);\n        emit updateEvent(); // trigger event \n    }\n    \n  \n    function changeStatus (bool _active, address _stake) public {\n\t//we will keep it simple, but we can assume that disable can be requested by admin or myself, yet enable only by admin.\n        require(exists(_stake)==true);  // if exsits\n        //require(msg.sender == adminaddr); // only if admin\n        stakeholderAddrs[_stake].active = _active;\n        emit changeStatusEvent(); // trigger event \n    }\n\n  // get the products managed by the stakeholder\n    function getStakeholdersProduct (address _stake) public view returns (uint [] memory)  {\n        //require(exists(_stake)==true); // exists\n        //require(exists(msg.sender)==true or msg.sender == adminaddr); // if valid user\n        return stakeholderAddrs[_stake].involvedproducts;\n    }\n\n    function getStakeholder (address _stake) public view returns (Stakeholder memory)  {\n        //require(exists(_stake)==true);  // if exsits\n        //require(exists(msg.sender)==true or msg.sender == adminaddr); // if valid user\n        return stakeholderAddrs[_stake];\n    }\n    \n    // returns global number of status, needed to iterate the mapping and to know info.\n    function getNumberOfStakeholders () public view returns (uint){    \n        //tx.origin\n        return stakeholderCount;\n    }\n\n    function exists(address _stake) public view returns (bool){\n        if(stakeholderAddrs[_stake].active == true){\n            return true;\n        }\n        return false;\n    }\n\n    function updateNumberOfProducts (address addr) public {\n        Food_pagonis f = Food_pagonis(addr);\n        productsCount =f.getNumberOfProducts();\n\n    }\n\n    function updateNumberOfProcesses (address addr) public {\n        \n        Processes p = Processes(addr);\n        processesCount=p.getNumberOfProcesses();     \n    }\n}\n",
  "sourcePath": "/home/fran/Desktop/food_supply_case_scenario/contracts/Stakeholders.sol",
  "compiler": {
    "name": "solc",
    "version": "0.5.8+commit.23d335f2.Emscripten.clang"
  },
  "schemaVersion": "3.0.11",
  "updatedAt": "2020-04-08T13:50:56.745Z",
  "devdoc": {
    "methods": {}
  },
  "userdoc": {
    "methods": {}
  }
}